:100000000C9466010C9497010C9497010C94970141
:100010000C9497010C9497010C9497010C94970100
:100020000C9497010C9497010C9497010C949701F0
:100030000C9497010C9497010C9497010C949701E0
:100040000C9497010C9497010C9497010C949701D0
:100050000C9497010C9497010C9497010C94E30372
:100060000C9497010C94B9050C94EA040C94970134
:100070000C9497010C9497010C9497010C949701A0
:100080000C9497010C9497010C9497010C94970190
:100090000C9489050C94AB040C9497010C94970173
:1000A0000C9497010C9497010C9497010C94970170
:1000B0000C9497010C9497010C9497010C94970160
:1000C0000C9497010C9497010C9497010C9459058A
:1000D0000C946C040C9497010C9429050C942D0439
:1000E0000C949701CF02D202C502C9020903D602BD
:1000F000DA02E002E402E802EE02F202F60209038A
:10010000FC020003040335033B0341034D03DC03FE
:10011000590362036B03770383038F03A003AC03CC
:10012000DC03B803C403D0030C94E0020C948F03E7
:100130000C944D030C94B8010C94DA020C94EE026A
:100140000C94F2020C94A0030C9459030C944E02EC
:100150000C9404030C94C5020C94F6020C94410315
:100160000C9435030C9400030C942E020C946A0238
:100170000C9477030C9423020C94B8030C94E402BF
:100180000C94D0030C94D2020C94FC020C94E80260
:100190000C94CA060C94AC030C94C4030C9409038D
:1001A0000C94CF020C94DC030C94E1010C946B03CF
:1001B0000C9483030C9462030C943B030C94D602BE
:1001C0000C94C9020000090A02080B0C0D07060373
:1001D000040100000000000000000000000000001A
:1001E000000000000000000000000000000000000F
:1001F00011100F00000000000000000000000000CF
:1002000000000000000000000000000022002500A7
:1002100028002B002E0031003400020100000501EF
:1002200008010B0100002100240027002A002D00F6
:100230003000330001010000040107010A01050537
:100240000505070508080808020202020A0A08084C
:10025000040404040101010101010101030303037A
:1002600003030303040707070C0C0C0C0C0C0C0C09
:100270000202020206060606060606060B0B0B0B1A
:100280000B0B0B0B0102102020080810204010203F
:10029000408002010201080402010102040810204A
:1002A0004080804020100804020180040201804048
:1002B00020100804020108040201010204081020B1
:1002C00040800102040810204080CA0611241FBE8D
:1002D000CFEFD1E2DEBFCDBF00E00CBF12E0A0E067
:1002E000B2E0E2E5FFE000E00BBF02C007900D9234
:1002F000A031B107D9F724E0A0E1B2E001C01D921E
:10030000A13CB207E1F711E0C6E6D1E000E006C08B
:1003100021970109802FFE010E949F07C536D10752
:1003200080E00807A9F70E94E9050C949C070C944B
:10033000000090E0FC01EC57FD4F2491FC01E25CD1
:10034000FD4F8491882399F090E0880F991FFC015C
:10035000EC5DFD4FA591B491FC01E65FFD4F8591E9
:1003600094918FB7F894EC91E22BEC938FBF0895A2
:10037000CF92DF92EF92FF920F931F93CF93DF9371
:100380006C01EB017B01E40EF51E00E010E0CE15E0
:10039000DF0561F06991D601ED91FC910190F0814A
:1003A000E02DC6011995080F191FF1CFC801DF9183
:1003B000CF911F910F91FF90EF90DF90CF90089514
:1003C00008950F931F93CF93DF93FC01A685B78504
:1003D0008D01005C1F4FE8018881998101968F7320
:1003E0009927AD014E5B5F4FEA0128813981821761
:1003F0009307D1F3E80128813981A20FB31F6C93D1
:10040000A685B785A05CBF4F11969C938E93A68955
:10041000B7892C9181E090E0078C02C0880F991F6A
:100420000A94E2F7822B8C9381E081A30488F589FA
:10043000E02D80818064808381E090E0DF91CF9126
:100440001F910F910895FC0181A1882329F0A489AF
:10045000B5898C9186FFFBCF11A20895FC01A4857C
:10046000B585FD01E05CFF4F2081318132968081AE
:1004700091812817390779F080819181A80FB91FE0
:100480008C91208131812F5F3F4F2F733327318330
:10049000208390E008958FEF9FEF0895DC011C9674
:1004A000ED91FC911D97DF01A05CBF4F2D913C9118
:1004B000119712968D919C9111972817390739F051
:1004C0008D919C91E80FF91F808190E008958FEF46
:1004D0009FEF0895FC0124853585F901E05CFF4F0D
:1004E00080819181329620813181821B930B8F73A1
:1004F0009927089586E994E00E946A028CEE93E0C1
:100500000E946A0282E493E00E946A0288E992E013
:100510000C946A02FB01E05CFF4F208131812F5F68
:100520003F4F2F733327DB01AE5BBF4F4D915C9183
:100530002417350741F040815181DB01A40FB51F1D
:100540008C93318320830895362F90E0FC01EC5387
:10055000FE4F4491FC01EC57FD4F2491FC01E25CFD
:10056000FD4F9491992309F468C0442309F451C0C4
:1005700050E0FA013197E131F10508F04AC08827CF
:10058000EE58FF4F8F4F0C949F07809180008F771C
:1005900003C0809180008F7D809380003AC084B535
:1005A0008F7702C084B58F7D84BD33C08091B00049
:1005B0008F7703C08091B0008F7D8093B00029C0F9
:1005C000809190008F7707C0809190008F7D03C04D
:1005D00080919000877F809390001BC08091A00045
:1005E0008F7707C08091A0008F7D03C08091A0000D
:1005F000877F8093A0000DC0809120018F7707C076
:10060000809120018F7D03C080912001877F80939E
:100610002001E92FF0E0EE0FFF1FE65FFD4FA591EF
:10062000B4919FB7F894311104C08C912095282380
:1006300002C0EC912E2B2C939FBF0895CF93C82F0F
:100640000E949901EC2FF0E0EC53FE4FE4918E2FC5
:1006500090E0FC013197E131F10508F0ADC0882749
:10066000ED57FF4F8F4F0C949F0784B5806884BD72
:100670008EE187BDA6C084B5806284BD8EE188BD51
:10068000A0C0809180008068809380008EE190E01F
:10069000909389008093880094C08091800080624C
:1006A000809380008EE190E090938B0080938A008D
:1006B00088C08091B00080688093B0008EE1809304
:1006C000B3007FC08091B00080628093B0008EE163
:1006D0008093B40076C080919000806880939000F1
:1006E0008EE190E090939900809398006AC0809189
:1006F00090008062809390008EE190E090939B0048
:1007000080939A005EC080919000886080939000F2
:100710008EE190E090939D0080939C0052C0809168
:10072000A00080688093A0008091A0008F7B8093C0
:10073000A0008EE190E09093A9008093A80041C0B2
:100740008091A00080628093A0008EE190E0909361
:10075000AB008093AA0035C08091A0008860809390
:10076000A0008EE190E09093AD008093AC0029C092
:10077000809120018068809320018EE190E0909329
:100780002901809328011DC08091200180628093FF
:1007900020018EE190E090932B0180932A0111C0FB
:1007A000809120018860809320018EE190E09093F9
:1007B0002D0180932C0105C060E08C2FCF910C940B
:1007C000A402CF9108951F920F920FB60F92112499
:1007D0002F933F938F939F93AF93BF938091BD04CB
:1007E0009091BE04A091BF04B091C0043091BC04AC
:1007F00023E0230F2D3720F40196A11DB11D05C064
:1008000026E8230F0296A11DB11D2093BC048093FE
:10081000BD049093BE04A093BF04B093C004809124
:10082000B8049091B904A091BA04B091BB040196A8
:10083000A11DB11D8093B8049093B904A093BA048C
:10084000B093BB04BF91AF919F918F913F912F9136
:100850000F900FBE0F901F9018951F920F920FB61A
:100860000F9211240BB60F922F933F938F939F9368
:10087000EF93FF93209150023091510280915202E8
:10088000909153022817390731F4809131018F7DFF
:100890008093310114C0E0915202F0915302E05F65
:1008A000FD4F2081809152029091530201968F73E7
:1008B0009927909353028093520220933601FF911F
:1008C000EF919F918F913F912F910F900BBE0F90C1
:1008D0000FBE0F901F9018951F920F920FB60F9298
:1008E00011240BB60F922F933F938F939F93EF9307
:1008F000FF932091FA023091FB028091FC029091CB
:10090000FD022817390731F48091D1008F7D809343
:10091000D10014C0E091FC02F091FD02E654FD4FBD
:1009200020818091FC029091FD0201968F7399279E
:100930009093FD028093FC022093D600FF91EF91EB
:100940009F918F913F912F910F900BBE0F900FBEF3
:100950000F901F9018951F920F920FB60F921124AF
:100960000BB60F922F933F938F939F93EF93FF9329
:100970002091A4033091A5038091A6039091A70331
:100980002817390731F48091C9008F7D8093C90001
:1009900014C0E091A603F091A703EC59FC4F20810D
:1009A0008091A6039091A70301968F739927909346
:1009B000A7038093A6032093CE00FF91EF919F9110
:1009C0008F913F912F910F900BBE0F900FBE0F9004
:1009D0001F9018951F920F920FB60F9211240BB60D
:1009E0000F922F933F938F939F93EF93FF932091B9
:1009F0004E0430914F048091500490915104281777
:100A0000390731F48091C1008F7D8093C10014C0FB
:100A1000E0915004F0915104E25FFB4F20818091FE
:100A200050049091510401968F739927909351042B
:100A3000809350042093C600FF91EF919F918F9176
:100A40003F912F910F900BBE0F900FBE0F901F90F4
:100A500018951F920F920FB60F9211240BB60F929A
:100A60002F933F934F935F936F937F938F939F93B6
:100A7000AF93BF93EF93FF938091300182FD06C047
:100A80008091360164E572E00E948A02FF91EF9145
:100A9000BF91AF919F918F917F916F915F914F9196
:100AA0003F912F910F900BBE0F900FBE0F901F9094
:100AB00018951F920F920FB60F9211240BB60F923A
:100AC0002F933F934F935F936F937F938F939F9356
:100AD000AF93BF93EF93FF938091D00082FD06C048
:100AE0008091D6006EEF72E00E948A02FF91EF9132
:100AF000BF91AF919F918F917F916F915F914F9136
:100B00003F912F910F900BBE0F900FBE0F901F9033
:100B100018951F920F920FB60F9211240BB60F92D9
:100B20002F933F934F935F936F937F938F939F93F5
:100B3000AF93BF93EF93FF938091C80082FD06C0EF
:100B40008091CE0068EA73E00E948A02FF91EF91E3
:100B5000BF91AF919F918F917F916F915F914F91D5
:100B60003F912F910F900BBE0F900FBE0F901F90D3
:100B700018951F920F920FB60F9211240BB60F9279
:100B80002F933F934F935F936F937F938F939F9395
:100B9000AF93BF93EF93FF938091C00082FD06C097
:100BA0008091C60062E574E00E948A02FF91EF9195
:100BB000BF91AF919F918F917F916F915F914F9175
:100BC0003F912F910F900BBE0F900FBE0F901F9073
:100BD0001895789484B5826084BD84B5816084BDA5
:100BE00085B5826085BD85B5816085BD80916E00CB
:100BF000816080936E0010928100809181008260FC
:100C00008093810080918100816080938100809138
:100C100080008160809380008091B1008460809327
:100C2000B1008091B00081608093B000809191000C
:100C30008260809391008091910081608093910007
:100C4000809190008160809390008091A1008260EB
:100C50008093A1008091A10081608093A100809188
:100C6000A00081608093A000809121018260809328
:100C700021018091210181608093210180912001D7
:100C800081608093200180917A00846080937A0053
:100C900080917A00826080937A0080917A008160EE
:100CA00080937A0080917A00806880937A00109215
:100CB000C100E091AA04F091AB0481E090E09C01B6
:100CC0000090B60402C0220F331F0A94E2F720837B
:100CD000E091A604F091A7041082E091A804F0919D
:100CE000A90420E120831092B704E091AC04F091B4
:100CF000AD0440819C010090B20402C0220F331F5A
:100D00000A94E2F7242B2083E091AC04F091AD0427
:100D100040819C010090B30402C0220F331F0A944B
:100D2000E2F7242B2083E091AC04F091AD044081E4
:100D30009C010090B40402C0220F331F0A94E2F712
:100D4000242B2083E091AC04F091AD04208100902D
:100D5000B50402C0880F991F0A94E2F78095822398
:100D6000808389E00E9499018BE00E9499018AE0CA
:100D70000E94990186E00E941E0385E00E941E03E6
:100D800084E00E941E0360E089E00E94A4020E94A9
:100D90007A02F0CFCF92DF92EF92FF92E6E9F4E091
:100DA0001382128288EEC82E83E0D82EE12CF12C1B
:100DB000C482D582E682F78264E072E07183608348
:100DC00082E594E0958784878EE094E09787868714
:100DD00085EC90E0918B808B84EC90E0938B828B00
:100DE00080EC90E0958B848B81EC90E0978B868BE8
:100DF00082EC90E0918F808F86EC90E0938F828FD1
:100E000044E0448F33E0358F27E0268F95E0978FBD
:100E100081E080A3ECEEF3E013821282C482D582DB
:100E2000E682F78271836083A8EAB3E0B587A4877E
:100E3000A4E6B3E0B787A687ADECB0E0B18BA08B9A
:100E4000ACECB0E0B38BA28BA8ECB0E0B58BA48B7C
:100E5000A9ECB0E0B78BA68BAAECB0E0B18FA08F65
:100E6000AEECB0E0B38FA28F448F358F268F978F73
:100E700080A3E2E4F3E013821282C482D582E68288
:100E8000F78271836083AEEFB2E0B587A487AAEBE7
:100E9000B2E0B787A687A5EDB0E0B18BA08BA4ED3B
:100EA000B0E0B38BA28BA0EDB0E0B58BA48BA1ED2D
:100EB000B0E0B78BA68BA2EDB0E0B18FA08FA6ED0E
:100EC000B0E0B38FA28F448F358F268F978F80A38A
:100ED000E8E9F2E013821282C482D582E682F782C8
:100EE0007183608364E572E07587648760E172E016
:100EF0007787668765E371E0718B608B64E371E0EF
:100F0000738B628B60E371E0758B648B61E371E0DE
:100F1000778B668B62E371E0718F608F66E371E0BF
:100F2000738F628F448F358F268F978F80A3FF90AA
:100F3000EF90DF90CF900895F8940C94A707EE0FF0
:100F4000FF1F881F8BBF0790F691E02D1994F8942E
:020F5000FFCFD1
:100F520000000000E101B8016A022E024E022302E3
:00000001FF
