:100000000C945E000C9486000C9486000C94860080
:100010000C9486000C9486000C9486000C94860048
:100020000C9486000C9486000C9486000C94860038
:100030000C9486000C9486000C9486000C94860028
:100040000C94E5020C9486000C946A030C942F0324
:100050000C9486000C9486000C9486000C94860008
:100060000C9486000C9486000000000024002700F9
:100070002A0000000007000201000003040600003F
:10008000000000000000010204081020408001026E
:1000900004081020010204081020000000002500C0
:1000A00028002B00040404040404040402020202D5
:1000B0000202030303030303A103470511241FBE28
:1000C000CFEFD8E0DEBFCDBF11E0A0E0B1E0E4E4C7
:1000D000FDE002C005900D92A631B107D9F721E0ED
:1000E000A6E1B1E001C01D92A93EB207E1F710E020
:1000F000CDE5D0E004C02197FE010E948F06CC35EB
:10010000D107C9F70E9454040C9457050C940000C1
:1001100090E0FC01EE58FF4F2491FC01EA57FF4F9D
:100120003491FC01EC55FF4FE491EE23B9F1222309
:1001300039F1233091F038F42130A9F0223001F563
:1001400084B58F7D12C0263091F02730A1F0243085
:10015000B9F4809180008F7D03C0809180008F77FB
:10016000809380000DC084B58F7784BD09C08091D5
:10017000B0008F7703C08091B0008F7D8093B00076
:10018000F0E0EE0FFF1FE656FF4FA591B4919FB729
:10019000F8948C91309538233C939FBF08954091FB
:1001A000DD015091DA012091D8013091D901451338
:1001B00008C0AC01440F551F840F951F820F931F79
:1001C0000AC0880F991F880F991F820F931FFC0187
:1001D000E40FF11D10822091DA01FC01E20FF11D04
:1001E00010822091DB01FC01E20FF11D10822091B1
:1001F000DC01FC01E20FF11D10820895CF93DF9323
:1002000090E0FC01EA57FF4F2491FC01EC55FF4FB1
:100210008491882361F190E0880F991FFC01E859CF
:10022000FF4FC591D491FC01E656FF4FA591B491C3
:10023000611109C09FB7F894888120958223888333
:10024000EC912E230BC0623061F49FB7F894888143
:10025000322F309583238883EC912E2B2C939FBFD4
:1002600006C08FB7F894E8812E2B28838FBFDF91CB
:10027000CF9108953FB7F89480911B0190911C0194
:10028000A0911D01B0911E0126B5A89B05C02F3F6E
:1002900019F00196A11DB11D3FBFBA2FA92F982FAC
:1002A0008827820F911DA11DB11DBC01CD0142E027
:1002B000660F771F881F991F4A95D1F708950F93EE
:1002C0001F93CF93DF93CDB7DEB729970FB6F8947E
:1002D000DEBF0FBECDBF8091D8019091D901892B8F
:1002E00009F4A2C00E943A010091DE011091DF01E1
:1002F0002091E0013091E101DC01CB01801B910BE9
:10030000A20BB30B8C329140A105B10558F3F894C0
:100310008091D3019091D4019A838983E091D8018F
:10032000F091D901DF011196808189879091CD01EB
:10033000E091E201F091E3018091E401992309F455
:100340002EC09081982B98879081809589238F83E8
:100350008F818C8388E08B8358856F8149853B81B1
:100360002C8189819A81508347FD252F3A952083DE
:10037000262F39F0441F00C000006083000000C039
:10038000F2CF38E04D9160830000019761F7F09360
:10039000E301E093E20149873B832C8338C09081DD
:1003A000982B98879081809589238F838F818E8366
:1003B00088E08D8358856F8149853D812E818981B3
:1003C0009A81508347FD252F00C000C0208300C0C4
:1003D00000C000C000C000C060830000262F3A9516
:1003E00041F0441F000000C000C000C000C000C0B9
:1003F000E8CF38E04D9100C0608300C0019709F755
:10040000F093E301E093E20149873D832E839A83D1
:10041000898378940E943A016093DE017093DF0132
:100420008093E0019093E10129960FB6F894DEBF26
:100430000FBECDBFDF91CF911F910F910895CF9245
:10044000DF92EF92FF920F931F93CF93DF936C0194
:10045000EB017B01E40EF51E00E010E0CE15DF0598
:1004600061F06991D601ED91FC910190F081E02D50
:10047000C6010995080F191FF1CFC801DF91CF916F
:100480001F910F91FF90EF90DF90CF900895089506
:100490000F931F93CF93DF93FC01A685B7858D0142
:1004A000005C1F4FE8018881998101968F7399271D
:1004B000AD014E5B5F4FEA012881398182179307B6
:1004C000D1F3E80128813981A20FB31F6C93A6856F
:1004D000B785A05CBF4F11969C938E93A689B78970
:1004E0002C9181E090E0078C02C0880F991F0A943C
:1004F000E2F7822B8C9381E081A30488F589E02DBB
:1005000080818064808381E090E0DF91CF911F91B2
:100510000F910895FC0181A1882329F0A489B58950
:100520008C9186FFFBCF11A20895FC01A485B585AF
:10053000FD01E05CFF4F2081318132968081918105
:100540002817390779F080819181A80FB91F8C9104
:10055000208131812F5F3F4F2F73332731832083D9
:1005600090E008958FEF9FEF0895DC011C96ED91C8
:10057000FC911D97DF01A05CBF4F2D913C9111971D
:1005800012968D919C9111972817390739F08D910A
:100590009C91E80FF91F808190E008958FEF9FEF05
:1005A0000895FC0124853585F901E05CFF4F8081C9
:1005B0009181329620813181821B930B8F73992711
:1005C000089587EA91E00C94D1021F920F920FB622
:1005D0000F9211242F933F938F939F93AF93BF93C9
:1005E0008091170190911801A0911901B0911A0101
:1005F0003091160123E0230F2D3720F40196A11D21
:10060000B11D05C026E8230F0296A11DB11D209340
:1006100016018093170190931801A0931901B093CC
:100620001A0180911B0190911C01A0911D01B091B4
:100630001E010196A11DB11D80931B0190931C0109
:10064000A0931D01B0931E01BF91AF919F918F9117
:100650003F912F910F900FBE0F901F9018951F92F2
:100660000F920FB60F9211242F933F938F939F9366
:10067000EF93FF9320915F013091600180916101C0
:10068000909162012817390731F48091C1008F7D64
:100690008093C10014C0E0916101F0916201E15EBC
:1006A000FE4F2081809161019091620101968F73CC
:1006B000992790936201809361012093C600FF9176
:1006C000EF919F918F913F912F910F900FBE0F90BF
:1006D0001F9018951F920F920FB60F9211242F930F
:1006E0004F935F938F939F93EF93FF938091C000FD
:1006F00082FD1BC02091C6008091A3019091A401AE
:1007000001968F7399274091A5015091A6018417F6
:10071000950759F0E091A301F091A401ED59FE4F26
:1007200020839093A4018093A301FF91EF919F9167
:100730008F915F914F912F910F900FBE0F901F904F
:1007400018951092AA011092A90188EE93E0A0E0FA
:10075000B0E08093AB019093AC01A093AD01B09356
:10076000AE018AE091E09093A8018093A70183E60F
:1007700091E09093B4018093B3018FE191E0909365
:10078000B6018093B50185EC90E09093B801809319
:10079000B70184EC90E09093BA018093B90180ECAA
:1007A00090E09093BC018093BB0181EC90E090932A
:1007B000BE018093BD0182EC90E09093C0018093D4
:1007C000BF0186EC90E09093C2018093C10184E068
:1007D0008093C30183E08093C40187E08093C501C7
:1007E00085E08093C60181E08093C7011092D0011B
:1007F0001092D7011092DE011092DF011092E001F9
:100800001092E1018093DD018093DA011092DB0107
:1008100092E09093DC018093CD0184EB90E0909383
:10082000D4018093D3010E945A059093D9018093FB
:10083000D801009761F024EBFC0111922A95E9F7A9
:100840008CE390E09093D2018093D10108C0109284
:10085000D4011092D3011092D2011092D10184E000
:1008600090E09093D6018093D5018091D0018823A8
:1008700039F061E084E00E94FE0084E00E9488007C
:10088000E8EAF0E0E491F0E0EE0FFF1FE656FF4FDC
:10089000859194919093E3018093E201EAE8F0E07E
:1008A000E491E093E4010895789484B5826084BD76
:1008B00084B5816084BD85B5826085BD85B5816064
:1008C00085BD80916E00816080936E0010928100E2
:1008D000809181008260809381008091810081609D
:1008E000809381008091800081608093800080915E
:1008F000B10084608093B1008091B00081608093EA
:10090000B00080917A00846080937A0080917A00B0
:10091000826080937A0080917A00816080937A006F
:1009200080917A00806880937A001092C100E091F3
:10093000BB01F091BC0181E090E09C010090C701F7
:1009400002C0220F331F0A94E2F72083E091B7011F
:10095000F091B8011082E091B901F091BA0120E163
:1009600020831092C801E091BD01F091BE01408149
:100970009C010090C30102C0220F331F0A94E2F7CA
:10098000242B2083E091BD01F091BE0140819C01A8
:100990000090C40102C0220F331F0A94E2F7242BF7
:1009A0002083E091BD01F091BE0140819C01009047
:1009B000C50102C0220F331F0A94E2F7242B2083C3
:1009C000E091BD01F091BE0120810090C60102C0FE
:1009D000880F991F0A94E2F7809582238083809183
:1009E000D5019091D60197FD07C061E00E94FE00FD
:1009F0008091D5010E94880081E08093D0010E94FF
:100A00005F016091D701613001F1615070E08FEFBB
:100A100090E00E947B062091D8013091D901F90124
:100A20004091D3015091D401CF01821B930B8417C5
:100A3000950740F44081469FC001479F900D1124C7
:100A40009193EECF81E08093D701C0E08C2F90E0AE
:100A50002091D1013091D2018217930740F40E9476
:100A6000CF000E945F01CF5FF1CF0E94E102C0E0A2
:100A70008C2F90E02091D1013091D2018217930701
:100A8000A0F70E94CF000E945F01CF5FF1CF80915D
:100A9000D8019091D9010E94F2058091D5019091E1
:100AA000D60197FD03C060E00C94FE000895F89411
:100AB0000C9495060F931F93CF93DF93823091058B
:100AC00010F482E090E0E091E701F091E80120E08D
:100AD00030E0A0E0B0E0309719F14081518102810F
:100AE000138148175907C8F08417950769F41097C0
:100AF00031F012960C93129713961C9327C0009313
:100B0000E7011093E80122C02115310519F04217C1
:100B1000530718F49A01BD01EF01DF01F801DBCFA3
:100B200021153105F9F0281B390B2430310580F4EB
:100B30008A819B816115710521F0FB01938382837A
:100B400004C09093E8018093E701FE01329644C00F
:100B5000FE01E20FF31F81939193225031093983F3
:100B600028833AC02091E5013091E601232B41F41E
:100B700020910201309103013093E6012093E501B9
:100B800020910001309101012115310541F42DB76B
:100B90003EB74091040150910501241B350BE091B3
:100BA000E501F091E601E217F307A0F42E1B3F0BDD
:100BB0002817390778F0AC014E5F5F4F24173507CF
:100BC00048F04E0F5F1F5093E6014093E50181937B
:100BD000919302C0E0E0F0E0CF01DF91CF911F914F
:100BE0000F910895CF93DF93009709F481C0FC0122
:100BF000329713821282A091E701B091E801109719
:100C000081F420813181820F931F2091E501309181
:100C1000E6012817390751F5F093E601E093E50165
:100C200067C0ED0120E030E0CE17DF0740F44A81D5
:100C30005B819E0141155105F1F0EA01F5CFD383A7
:100C4000C28340815181840F951FC817D90759F479
:100C500088819981840F951F0296918380838A8170
:100C60009B81938382832115310529F4F093E80158
:100C7000E093E7013DC0E901FB83EA834991599183
:100C8000C40FD51FEC17FD0761F480819181840F9B
:100C9000951F0296E90199838883828193819B83C2
:100CA0008A83E0E0F0E012968D919C911397009773
:100CB00019F0FD01DC01F7CF8D919C9111979D01F9
:100CC0002E5F3F4F820F931F2091E5013091E60187
:100CD0002817390769F4309729F41092E801109227
:100CE000E70102C013821282B093E601A093E501EE
:100CF000DF91CF910895AA1BBB1B51E107C0AA1F2A
:100D0000BB1FA617B70710F0A61BB70B881F991FAC
:100D10005A95A9F780959095BC01CD010895EE0FE5
:100D2000FF1F0590F491E02D099410E0CDE5D0E08F
:100D300004C0FE010E948F062196CE35D107C9F767
:040D4000F894FFCF55
:100D44000000E90120000000000048021F02D10257
:060D54009502B5028A02BF
:00000001FF
