:100000000C9438010C9469010C9469010C946901F9
:100010000C9469010C9469010C9469010C946901B8
:100020000C9469010C9469010C9469010C946901A8
:100030000C9469010C9469010C9469010C94690198
:100040000C9469010C9469010C9469010C94690188
:100050000C9469010C9469010C9469010C941B04C3
:100060000C9469010C94FA050C9422050C94690116
:100070000C9469010C9469010C9469010C94690158
:100080000C9469010C9469010C9469010C94690148
:100090000C94C7050C94E3040C9469010C94690159
:1000A0000C9469010C9469010C9469010C94690128
:1000B0000C9469010C9469010C9469010C94690118
:1000C0000C9469010C9469010C9469010C949405D9
:1000D0000C94A4040C9469010C9461050C946504BF
:1000E0000C946901950198018B018F01CF019C014E
:1000F000A001A601AA01AE01B401B801BC01CF0163
:10010000C201C601CA010C94E1030C948F010C9446
:1001100058030C94AE010C94C2010C94C5030C94CA
:100120002D060C9498010C94A0010C949A030C9445
:10013000B8010C94A6010C94B4010C940E020C941A
:10014000E8080C94C6010C94CA010C948B010C9421
:10015000CF010C94BC010C949C010C94A5030C944D
:10016000AA010C94950100002100240027002A0018
:100170002D003000330001010000040107010A01D5
:100180000000090A02080B0C0D0706030401000019
:10019000000000000000000000000000000000005F
:1001A00000000000000000000000000011100F001F
:1001B000000000000000000000000000000000003F
:1001C000000000000000010210202008081020405C
:1001D000102040800201020108040201010204080B
:1001E0001020408080402010080402018004020199
:1001F00080402010080402010804020101020408E2
:1002000010204080010204081020408000002200DD
:10021000250028002B002E003100340002010000D0
:10022000050108010B010505050507050808080873
:10023000020202020A0A080804040404010101017E
:100240000101010103030303030303030407070779
:100250000C0C0C0C0C0C0C0C02020202060606061E
:10026000060606060B0B0B0B0B0B0B0B2D06E808FB
:1002700011241FBECFEFD1E2DEBFCDBF00E00CBF27
:1002800012E0A0E0B2E0E4E9F4E100E00BBF02C05C
:1002900007900D92A631B107D9F724E0A6E1B2E0AC
:1002A00001C01D92A13EB207E1F711E0C7E3D1E022
:1002B00000E006C021970109802FFE010E94300A4C
:1002C000C633D10780E00807A9F70E94C8070C943D
:1002D000F8080C94000090E0FC01E058FE4F4491B7
:1002E000FC01EA53FE4F2491FC01EA5DFD4F94911D
:1002F000992309F463C0442309F451C050E0FA0182
:100300003197E131F10508F04AC08827EE58FF4FD8
:100310008F4F0C94300A809180008F7703C08091BA
:1003200080008F7D809380003AC084B58F7702C0B3
:1003300084B58F7D84BD33C08091B0008F7703C0BA
:100340008091B0008F7D8093B00029C08091900093
:100350008F7707C0809190008F7D03C080919000BF
:10036000877F809390001BC08091A0008F7707C08B
:100370008091A0008F7D03C08091A000877F809333
:10038000A0000DC0809120018F7707C080912001CF
:100390008F7D03C080912001877F80932001E92F0A
:1003A000F0E0EE0FFF1FE45FFD4FA591B4919FB702
:1003B000F8948C91209528232C939FBF0895409109
:1003C000D5045091D2042091D0043091D10445132A
:1003D00008C0AC01440F551F840F951F820F931F57
:1003E0000AC0880F991F880F991F820F931FFC0165
:1003F000E40FF11D10822091D204FC01E20FF11DE7
:1004000010822091D304FC01E20FF11D1082209193
:10041000D404FC01E20FF11D10820895CF92DF9207
:10042000EF92FF920F931F93CF93DF936C01EB0139
:100430007B01E40EF51E00E010E0CE15DF0561F053
:100440006991D601ED91FC910190F081E02DC601FA
:100450001995080F191FF1CFC801DF91CF911F9196
:100460000F91FF90EF90DF90CF9008950895CF9374
:10047000DF9390E0FC01EA53FE4F2491FC01EA5D1A
:10048000FD4F8491882361F190E0880F991FFC0152
:10049000EA59FE4FC591D491FC01E45FFD4FA5914F
:1004A000B491611109C09FB7F89488812095822387
:1004B0008883EC912E230BC0623061F49FB7F894CF
:1004C0008881322F309583238883EC912E2B2C93B7
:1004D0009FBF06C08FB7F894E8812E2B28838FBF6B
:1004E000DF91CF9108953FB7F89480911B029091CE
:1004F0001C02A0911D02B0911E0226B5A89B05C04A
:100500002F3F19F00196A11DB11D3FBFBA2FA92F92
:10051000982F8827820F911DA11DB11DBC01CD010F
:1005200042E0660F771F881F991F4A95D1F70895FB
:100530000F931F93CF93DF93CDB7DEB729970FB6F5
:10054000F894DEBF0FBECDBF8091D0049091D1044E
:10055000892B09F4A2C00E9473020091D604109165
:10056000D7042091D8043091D904DC01CB01801B41
:10057000910BA20BB30B8C329140A105B10558F33E
:10058000F8948091CB049091CC049A838983E09174
:10059000D004F091D104DF01119680818987909178
:1005A000C704E091DA04F091DB048091DC04992324
:1005B00009F42EC09081982B98879081809589238B
:1005C0008F838F818C8388E08B8358856F814985E9
:1005D0003B812C8189819A81508347FD252F3A9553
:1005E0002083262F39F0441F00C0000060830000E4
:1005F00000C0F2CF38E04D9160830000019761F7B1
:10060000F093DB04E093DA0449873B832C8338C002
:100610009081982B98879081809589238F838F81F3
:100620008E8388E08D8358856F8149853D812E8139
:1006300089819A81508347FD252F00C000C0208307
:1006400000C000C000C000C000C060830000262FB2
:100650003A9541F0441F000000C000C000C000C037
:1006600000C0E8CF38E04D9100C0608300C0019722
:1006700009F7F093DB04E093DA0449873D832E8386
:100680009A83898378940E9473026093D60470934E
:10069000D7048093D8049093D90429960FB6F89480
:1006A000DEBF0FBECDBFDF91CF911F910F91089597
:1006B0000F931F93CF93DF93FC01A685B7858D0120
:1006C000005C1F4FE8018881998101968F739927FB
:1006D000AD014E5B5F4FEA01288139812817390748
:1006E000D1F3E80128813981A20FB31F6C93A6854D
:1006F000B785A05CBF4F11969C938E93A689B7894E
:100700002C9181E090E0078C02C0880F991F0A9419
:10071000E2F7822B8C9381E081A30488F589E02D98
:1007200080818064808381E090E0DF91CF911F9190
:100730000F910895FC0181A1882329F0A489B5892E
:100740008C9186FFFBCF11A20895FC01A485B5858D
:10075000FD01E05CFF4F20813181329680819181E3
:100760002817390779F080819181A80FB91F8C91E2
:10077000208131812F5F3F4F2F73332731832083B7
:1007800090E008958FEF9FEF0895DC011C96ED91A6
:10079000FC911D97DF01A05CBF4F2D913C911197FB
:1007A00012968D919C9111972817390739F08D91E8
:1007B0009C91E80FF91F808190E008958FEF9FEFE3
:1007C0000895FC0124853585F901E05CFF4F8081A7
:1007D0009181329620813181821B930B8F739927EF
:1007E000089585EA94E00E94E1038BEF93E00E9474
:1007F000E10381E593E00E94E10387EA92E00C9433
:10080000E103FB01E05CFF4F20813181DB01AE5B46
:10081000BF4F4D915C912F5F3F4F2F73332742178E
:10082000530741F040815181DB01A40FB51F8C9328
:100830003183208308951F920F920FB60F921124D7
:100840002F933F938F939F93AF93BF938091170202
:1008500090911802A0911902B0911A0230911602DB
:1008600023E0230F2D3720F40196A11DB11D05C0F3
:1008700026E8230F0296A11DB11D20931602809336
:10088000170290931802A0931902B0931A02809154
:100890001B0290911C02A0911D02B0911E020196B4
:1008A000A11DB11D80931B0290931C02A0931D02F9
:1008B000B0931E02BF91AF919F918F913F912F9165
:1008C0000F900FBE0F901F9018951F920F920FB6AA
:1008D0000F9211240BB60F922F933F938F939F93F8
:1008E000EF93FF9320915F0230916002809161024B
:1008F000909162022817390731F4809131018F7D80
:100900008093310114C0E0916102F0916202E15ED6
:10091000FD4F2081809161029091620201968F7358
:100920009927909362028093610220933601FF9190
:10093000EF919F918F913F912F910F900BBE0F9050
:100940000FBE0F901F9018951F920F920FB60F9227
:1009500011240BB60F922F933F938F939F93EF9396
:10096000FF932091090330910A0380910B0390912A
:100970000C032817390731F48091D1008F7D8093C3
:10098000D10014C0E0910B03F0910C03E753FD4F2D
:10099000208180910B0390910C0301968F7399270E
:1009A00090930C0380930B032093D600FF91EF915B
:1009B0009F918F913F912F910F900BBE0F900FBE83
:1009C0000F901F9018951F920F920FB60F9211243F
:1009D0000BB60F922F933F938F939F93EF93FF93B9
:1009E0002091B3033091B4038091B5039091B60385
:1009F0002817390731F48091C9008F7D8093C90091
:100A000014C0E091B503F091B603ED58FC4F20817E
:100A10008091B5039091B60301968F7399279093B7
:100A2000B6038093B5032093CE00FF91EF919F9181
:100A30008F913F912F910F900BBE0F900FBE0F9093
:100A40001F9018951F920F920FB60F9211240BB69C
:100A50000F922F933F938F939F93EF93FF93209148
:100A60005D0430915E0480915F04909160042817CA
:100A7000390731F48091C1008F7D8093C10014C08B
:100A8000E0915F04F0916004E35EFB4F2081809170
:100A90005F049091600401968F739927909360048E
:100AA00080935F042093C600FF91EF919F918F91F7
:100AB0003F912F910F900BBE0F900FBE0F901F9084
:100AC00018951F920F920FB60F9211240BB60F922A
:100AD0002F933F934F935F936F937F938F939F9346
:100AE000AF93BF93EF93FF938091300182FD07C0D6
:100AF0008091360163E672E00E94010402C0809199
:100B00003601FF91EF91BF91AF919F918F917F91AE
:100B10006F915F914F913F912F910F900BBE0F906E
:100B20000FBE0F901F9018951F920F920FB60F9245
:100B300011240BB60F922F933F934F935F936F93B4
:100B40007F938F939F93AF93BF93EF93FF93809186
:100B5000D00082FD07C08091D6006DE073E00E9456
:100B6000010402C08091D600FF91EF91BF91AF9137
:100B70009F918F917F916F915F914F913F912F91B5
:100B80000F900BBE0F900FBE0F901F9018951F92E5
:100B90000F920FB60F9211240BB60F922F933F9323
:100BA0004F935F936F937F938F939F93AF93BF9375
:100BB000EF93FF938091C80082FD07C08091CE0023
:100BC00067EB73E00E94010402C08091CE00FF91A8
:100BD000EF91BF91AF919F918F917F916F915F91B5
:100BE0004F913F912F910F900BBE0F900FBE0F9022
:100BF0001F9018951F920F920FB60F9211240BB6EB
:100C00000F922F933F934F935F936F937F938F93A5
:100C10009F93AF93BF93EF93FF938091C00082FDAA
:100C200007C08091C60061E674E00E94010402C022
:100C30008091C600FF91EF91BF91AF919F918F91ED
:100C40007F916F915F914F913F912F910F900BBECC
:100C50000F900FBE0F901F901895CF92DF92EF92DA
:100C6000FF921092A8041092A70498EEC92E93E068
:100C7000D92EE12CF12CC092A904D092AA04E092C2
:100C8000AB04F092AC046AE072E07093A604609347
:100C9000A50481E694E09093B2048093B1048DE1C1
:100CA00094E09093B4048093B30485EC90E0909327
:100CB000B6048093B50484EC90E09093B8048093DC
:100CC000B70480EC90E09093BA048093B90481EC6F
:100CD00090E09093BC048093BB0482EC90E09093EE
:100CE000BE048093BD0486EC90E09093C004809392
:100CF000BF0444E04093C10433E03093C20427E0D2
:100D00002093C30495E09093C40481E08093C504CC
:100D10001092FE031092FD03C092FF03D0920004D4
:100D2000E0920104F09202047093FC036093FB03D1
:100D3000E7EBF3E0F0930804E0930704E3E7F3E064
:100D4000F0930A04E0930904EDECF0E0F0930C0456
:100D5000E0930B04ECECF0E0F0930E04E0930D0450
:100D6000E8ECF0E0F0931004E0930F04E9ECF0E01D
:100D7000F0931204E0931104EAECF0E0F093140411
:100D8000E0931304EEECF0E0F0931604E093150406
:100D900040931704309318042093190490931A0475
:100DA00080931B041092540310925303C092550376
:100DB000D0925603E0925703F09258037093520377
:100DC00060935103EDE0F3E0F0935E03E0935D0385
:100DD000E9ECF2E0F0936003E0935F03E5EDF0E00F
:100DE000F0936203E0936103E4EDF0E0F0936403B9
:100DF000E0936303E0EDF0E0F0936603E0936503B6
:100E0000E1EDF0E0F0936803E0936703E2EDF0E0DA
:100E1000F0936A03E0936903E6EDF0E0F0936C036E
:100E2000E0936B0340936D0330936E0320936F0345
:100E300090937003809371031092AA021092A902FA
:100E4000C092AB02D092AC02E092AD02F092AE0240
:100E50007093A8026093A70263E672E07093B402F5
:100E60006093B3026FE172E07093B6026093B502D3
:100E700065E371E07093B8026093B70264E371E0D8
:100E80007093BA026093B90260E371E07093BC02A0
:100E90006093BB0261E371E07093BE026093BD0298
:100EA00062E371E07093C0026093BF0266E371E099
:100EB0007093C2026093C1024093C3023093C40294
:100EC0002093C5029093C6028093C7021092C80473
:100ED0001092CF041092D6041092D7041092D80426
:100EE0001092D9048093D5048093D2041092D30435
:100EF00092E09093D4048093C70488E790E09093A5
:100F0000CC048093CB040E94FB089093D10480937F
:100F1000D004009761F028E7FC0111922A95E9F7C7
:100F200088E290E09093CA048093C90408C01092AC
:100F3000CC041092CB041092CA041092C90487E02A
:100F400090E09093CE048093CD048091C8048823D0
:100F500039F061E087E00E94370287E00E946B0170
:100F6000EDE2F2E0E491F0E0EE0FFF1FE45FFD4FF1
:100F7000859194919093DB048093DA04EDECF1E099
:100F8000E491E093DC04FF90EF90DF90CF90089520
:100F9000789484B5826084BD84B5816084BD85B554
:100FA000826085BD85B5816085BD80916E00816060
:100FB00080936E0010928100809181008260809306
:100FC0008100809181008160809381008091800008
:100FD0008160809380008091B10084608093B10033
:100FE0008091B00081608093B00080919100826018
:100FF0008093910080919100816080939100809115
:1010000090008160809390008091A1008260809325
:10101000A1008091A10081608093A1008091A00037
:1010200081608093A00080912101826080932101E2
:101030008091210181608093210180912001816054
:101040008093200180917A00846080937A0080915F
:101050007A00826080937A0080917A008160809328
:101060007A0080917A00806880937A001092C100A3
:10107000E091B904F091BA0481E090E09C01009005
:10108000C50402C0220F331F0A94E2F72083E091C7
:10109000B504F091B6041082E091B704F091B80461
:1010A00020E120831092C604E091BB04F091BC04BF
:1010B00040819C010090C10402C0220F331F0A949A
:1010C000E2F7242B2083E091BB04F091BC04408123
:1010D0009C010090C20402C0220F331F0A94E2F761
:1010E000242B2083E091BB04F091BC0440819C013F
:1010F0000090C30402C0220F331F0A94E2F7242B8E
:101100002083E091BB04F091BC0420810090C404D2
:1011100002C0880F991F0A94E2F78095822380838A
:101120008091CD049091CE0497FD07C061E00E94AC
:1011300037028091CD040E946B0181E08093C80446
:101140000E9498026091CF04613001F1615070E01B
:101150008FEF90E00E941C0A2091D0043091D104BE
:10116000F9014091CB045091CC04CF01821B930B29
:101170008417950740F44081469FC001479F900D1A
:1011800011249193EECF81E08093CF04C0E0D0E0B2
:101190008091C9049091CA04C817D90748F4CE01B8
:1011A0000E94DF010E9498022196F2CF0E94F10373
:1011B000C0E0D0E08091C9049091CA04C817D90753
:1011C000A8F7CE010E94DF010E9498022196F2CF7B
:1011D0008091D0049091D1040E9493098091CD0414
:1011E0009091CE0497FD03C060E00C9437020895FF
:1011F000F8940C94380A0F931F93CF93DF938230A7
:10120000910510F482E090E0E091DF04F091E004B9
:1012100020E030E0A0E0B0E0309719F1408151814A
:101220000281138148175907C8F08417950769F49C
:10123000109731F012960C93129713961C9327C0B7
:101240000093DF041093E00422C02115310519F04A
:101250004217530718F49A01BD01EF01DF01F801AD
:10126000DBCF21153105F9F0281B390B243031056E
:1012700080F48A819B816115710521F0FB019383C4
:10128000828304C09093E0048093DF04FE013296D1
:1012900044C0FE01E20FF31F819391932250310964
:1012A000398328833AC02091DD043091DE04232B5A
:1012B00041F420910202309103023093DE04209326
:1012C000DD0420910002309101022115310541F425
:1012D0002DB73EB74091040250910502241B350BF7
:1012E000E091DD04F091DE04E217F307A0F42E1B79
:1012F0003F0B2817390778F0AC014E5F5F4F24177A
:10130000350748F04E0F5F1F5093DE044093DD0415
:101310008193919302C0E0E0F0E0CF01DF91CF91A3
:101320001F910F910895CF93DF93009709F481C027
:10133000FC01329713821282A091DF04B091E00485
:10134000109781F420813181820F931F2091DD0459
:101350003091DE042817390751F5F093DE04E0934D
:10136000DD0467C0ED0120E030E0CE17DF0740F478
:101370004A815B819E0141155105F1F0EA01F5CFEB
:10138000D383C28340815181840F951FC817D90729
:1013900059F488819981840F951F029691838083E7
:1013A0008A819B81938382832115310529F4F093EF
:1013B000E004E093DF043DC0E901FB83EA83499147
:1013C0005991C40FD51FEC17FD0761F480819181FD
:1013D000840F951F0296E901998388838281938106
:1013E0009B838A83E0E0F0E012968D919C911397A5
:1013F000009719F0FD01DC01F7CF8D919C911197B9
:101400009D012E5F3F4F820F931F2091DD0430918D
:10141000DE042817390769F4309729F41092E004A4
:101420001092DF0402C013821282B093DE04A093F4
:10143000DD04DF91CF910895AA1BBB1B51E107C0CA
:10144000AA1FBB1FA617B70710F0A61BB70B881F54
:10145000991F5A95A9F780959095BC01CD010895E3
:10146000EE0FFF1F881F8BBF0790F691E02D199498
:1014700011E0C7E3D1E000E006C0802FFE010E942A
:10148000300A2196011DC833D10780E00807A9F76B
:04149000F894FFCFFE
:101494000000E10420000000000058030E02E103F4
:0614A400A503C5039A0335
:00000001FF
