:100000000C9436010C945E010C945E010C94000A71
:100010000C94A90A0C94850A0C945E010C945E0160
:100020000C945E010C945E010C945E010C945E01D4
:100030000C945E010C945E010C945E010C945E01C4
:100040000C9426050C945E010C94080B0C94CD0ABC
:100050000C945E010C945E010C945E010C945E01A4
:100060000C945E010C945E013C7061747465726E58
:100070003E003C7472616E732D67616D653E003C9D
:1000800073746F702D67616D653E003C6261636BD8
:100090005F6A6F79737469636B3E003C726967686D
:1000A000742D6A6F79737469636B3E003C66726F7E
:1000B0006E742D6A6F79737469636B3E003C6C6576
:1000C00066742D6A6F79737469636B3E003C667267
:1000D0006F6E747061743E003C7269676874706121
:1000E000743E003C6C6566747061743E003C666FE3
:1000F0006C6C6F77696E673E003C6E6F6C65643E3A
:10010000003C7475726E313E003C6261636B313E3F
:10011000003C7269676874313E003C66726F6E74B1
:10012000313E003C6C656674313E003C6175746F15
:100130006E6F6D6F75733E003C646F6D656E6963C5
:10014000613E0000C201000100110011000C00001E
:10015000E100000A0025002500210000960000199A
:1001600000390039003600127A00001F00460046B0
:100170000044008070000022004D004D004A000045
:100180004B00003600750075007200403800004AD0
:10019000009C009C009900802500007200EC00EC9F
:1001A00000E900C0120000E900DA01DA01D70160BD
:1001B000090000D701B603B603B303B0040000B3CF
:1001C000036E076E076B07580200006E07DC0EDC3B
:1001D0000ED80E2C010000DC0EC11DC11DBE1D3C41
:1001E0004E616E6F2069732072656164793E003CD8
:1001F000676F616374696F6E3E003C676F666F6C1A
:100200006C6F3E003C676F6175746F3E00000000CC
:1002100000240027002A000000000700020100005F
:10022000030406000000000000000000000000239E
:10023000002600290000000000250028002B0004F3
:10024000040404040404040202020202020303037D
:100250000303030102040810204080010204081077
:1002600020010204081020008111361111241FBE44
:10027000CFEFD8E0DEBFCDBF11E0A0E0B1E0EAE013
:10028000F2E302C005900D92A237B107D9F723E03F
:10029000A2E7B1E001C01D92A63FB207E1F711E06D
:1002A000C5E3D1E004C02197FE010E94F218C433D7
:1002B000D107C9F70E94F60C0C941F140C9400008F
:1002C0000895CF92DF92EF92FF920F931F93CF93F7
:1002D000DF936C01EB017B01E40EF51E00E010E002
:1002E000CE15DF0561F06991D601ED91FC91019089
:1002F000F081E02DC6010995080F191FF1CFC80143
:10030000DF91CF911F910F91FF90EF90DF90CF90F1
:1003100008956115710579F0FB0101900020E9F75E
:100320003197AF01461B570BDC01ED91FC91028028
:10033000F381E02D099480E090E008958F929F92E0
:10034000AF92BF92CF92DF92EF92FF920F931F93E3
:10035000CF93DF93CDB7DEB7A1970FB6F894DEBF8A
:100360000FBECDBF6C01142FE52FCB01022F19A2B8
:10037000223008F40AE07E0121E2E20EF11C802E18
:10038000912CA12CB12C612F7E2FA50194010E94EC
:100390006814029F1019112481E0E81AF1081A303C
:1003A00014F4105D01C0195CF7011083122FE32FC4
:1003B000CA01232B242B252B31F7B701C6010E943C
:1003C0008901A1960FB6F894DEBF0FBECDBFDF91B5
:1003D000CF911F910F91FF90EF90DF90CF90BF9042
:1003E000AF909F908F9008953FB7F89480917E01D1
:1003F00090917F01A0918001B091810126B5A89BC9
:1004000005C02F3F19F00196A11DB11D3FBFBA2FA6
:10041000A92F982F8827820F911DA11DB11DBC0106
:10042000CD0142E0660F771F881F991F4A95D1F7CB
:100430000895CF92DF92EF92FF92CF93DF936B01FB
:100440007C010E94F401EB01C114D104E104F10428
:1004500079F00E94F4016C1B7D0B683E7340A0F3A1
:1004600081E0C81AD108E108F108C851DC4FECCF8F
:10047000DF91CF91FF90EF90DF90CF9008952FB74D
:10048000F89460917A0170917B0180917C01909148
:100490007D012FBF08950F931F93CF938DE592E0B9
:1004A0000E94940618161906CCF58DE592E00E947C
:1004B0005806C82F8091A002C81316C01092CD0212
:1004C00081E08093CE02E091A102F0E0E156FD4F81
:1004D000158266E271E084EA92E00E943114BC0168
:1004E00088EB92E00E94CF158091CD02882369F0BD
:1004F0008091A102E82FF0E0E156FD4FC5838F5FA8
:10050000843109F483E18093A10280919F02C81392
:1005100005C01092A10281E08093CD02C1E0C0939A
:10052000CC0288EB92E09093780180937701C0939E
:10053000760168E271E00E94C615892BA1F48091D2
:10054000CE02882309F47EC21092CE021092760168
:1005500088E391E09F938F938DE592E09F938F9333
:100560000E94730B6BC261E371E088EB92E00E9422
:10057000C615892B61F48091CE02882309F462C2EA
:100580001092CE02109276018BE291E013C06AE2E3
:1005900071E088EB92E00E94C615892BA1F480914E
:1005A000CE02882309F44EC21092CE021092760138
:1005B00083E291E09F938F938DE592E09F938F93D9
:1005C0000E94730B0DC26DE271E088EB92E00E9415
:1005D000C615892B61F48091CE02882309F432C2BA
:1005E0001092CE02109276018AE191E0FFC062E69D
:1005F00071E088EB92E00E94C615892B61F480912E
:10060000CE02882309F41EC21092CE021092760107
:1006100081E191E03DC160E371E088EB92E00E94EE
:10062000C615892B01F58091CE02882309F40AC2F0
:100630001092CE021092760189E091E09F938F9301
:100640008DE592E09F938F930E94730B0F900F9014
:100650000F900F906091970270919802809199028B
:1006600090919A02C9C163E371E088EB92E00E9425
:10067000C615892B61F48091CE02882309F4E2C16A
:100680001092CE021092760181E091E0D7C065E32E
:1006900071E088EB92E00E94C615892BE1F480910D
:1006A000CE02882309F4CEC11092CE0210928B01A3
:1006B000C0938A011092760189EF90E09F938F9307
:1006C0008DE592E09F938F930E94730B0F900F9094
:1006D0000F900F9063C167E371E088EB92E00E9496
:1006E000C615892B61F48091CE02882309F4AAC132
:1006F0001092CE02109276018DEE90E09FC069E3D9
:1007000071E088EB92E00E94C615892B61F480911C
:10071000CE02882309F496C11092CE02109276017F
:1007200083EE90E0DDC06CE371E088EB92E00E9424
:10073000C615892B01F58091CE02882309F482C168
:100740001092CE021092760188ED90E09F938F93E5
:100750008DE592E09F938F930E94730B0F900F9003
:100760000F900F90609183027091840280918502B6
:100770009091860241C16FE371E088EB92E00E94A4
:10078000C615892B01F58091CE02882309F45AC140
:100790001092CE02109276018DEC90E09F938F9391
:1007A0008DE592E09F938F930E94730B0F900F90B3
:1007B0000F900F9060917F02709180028091810272
:1007C0009091820219C162E471E088EB92E00E948C
:1007D000C615892B01F58091CE02882309F432C118
:1007E0001092CE02109276018DEB90E09F938F9342
:1007F0008DE592E09F938F930E94730B0F900F9063
:100800000F900F90609193027091940280919502E5
:1008100090919602F1C064E471E088EB92E00E944E
:10082000C615892B01F58091CE02882309F40AC1EF
:100830001092CE02109276018CEA90E09F938F93F3
:100840008DE592E09F938F930E94730B0F900F9012
:100850000F900F9060918F027091900280919102A1
:1008600090919202C9C066E471E088EB92E00E9428
:10087000C615892B11F58091CE02882309F4E2C0B8
:100880001092CE0210928E0110928D018BE990E0B1
:100890009F938F938DE592E09F938F930E94730BAC
:1008A0000F900F900F900F9060918B0270918C02BF
:1008B00080918D0290918E029FC068E471E088EB78
:1008C00092E00E94C615892B01F58091CE02882303
:1008D00009F4B8C01092CE02109276018BE890E035
:1008E0009F938F938DE592E09F938F930E94730B5C
:1008F0000F900F900F900F90609187027091880277
:100900008091890290918A0277C06AE471E088EB55
:1009100092E00E94C615892B09F045C08091CE0255
:10092000882309F48FC01092CE020E943F02609388
:10093000720170937301809374019093750110920A
:1009400076018FE790E09F938F938DE592E09F93E0
:100950008F930E94730B0E946E07609197027091B3
:1009600098028091990290919A020E94A8060F9095
:100970000F900F900F900E943F0200917201109112
:10098000730120917401309175010C501E4F2F4F4F
:100990003F4F601771078207930768F3CF911F914C
:1009A0000F910C946E076CE471E088EB92E00E946A
:1009B000C615892B31F58091CE02882309F442C0F7
:1009C0001092CE021092760182E790E09F938F936F
:1009D0008DE592E09F938F930E94730B0E946E07A8
:1009E0000F900F900F900F9060919B0270919C025E
:1009F00080919D0290919E02CF911F910F910C9436
:100A0000A8066EE471E088EB92E00E94C615892B7F
:100A1000C9F48091CE028823A9F01092CE021092E0
:100A2000760188E690E09F938F938DE592E09F9307
:100A30008F930E94730B81E080938B010F900F9036
:100A40000F900F90CF911F910F9108951F920F92C9
:100A50000FB60F9211242F933F938F939F93AF93D1
:100A6000BF9380917A0190917B01A0917C01B0911C
:100A70007D013091790123E0230F2D3720F4019679
:100A8000A11DB11D05C026E8230F0296A11DB11DB1
:100A90002093790180937A0190937B01A0937C014C
:100AA000B0937D0180917E0190917F01A0918001A2
:100AB000B09181010196A11DB11D80937E0190939B
:100AC0007F01A0938001B0938101BF91AF919F916D
:100AD0008F913F912F910F900FBE0F901F901895FF
:100AE000FC012281338186819781A901481B590B22
:100AF0006417750710F0821B930B860F971F0895DC
:100B00000F931F93CF93DF93EC010C811D8101158F
:100B1000110559F001501109B801CE010E9470056C
:100B2000998788871D830C83F0CF88819981DF9115
:100B3000CF911F910F910C943115DC015196ED91DD
:100B4000FC915297908150968C9180958923808357
:100B5000089520919301309194012817390781F469
:100B60009091920180919101981751F0E09192013A
:100B7000F0E0EB56FE4F8081082E000C990B089593
:100B80008FEF9FEF089520919301309194012817E2
:100B9000390739F48FB7F8941092910110929201AD
:100BA0008FBF089520919301309194012817390740
:100BB00071F4809191012091920190E0805C9F4FAF
:100BC000821B910960E470E00E94A718089580E0FC
:100BD00090E00895209193013091940128173907EE
:100BE000B9F49091920180919101981789F0E09168
:100BF0009201F0E0EB56FE4F80812091920130E0AF
:100C00002F5F3F4F2F7333272093920190E0089579
:100C10008FEF9FEF08950F931F93CF93DF93FC0106
:100C2000A685B7858D01005C1F4FE80188819981F9
:100C300001968F739927AD014E5B5F4FEA012881C2
:100C4000398182179307D1F3E80128813981A20FF6
:100C5000B31F6C93A685B785A05CBF4F11969C937C
:100C60008E93A689B7892C9181E090E0078C02C011
:100C7000880F991F0A94E2F7822B8C9381E081A35D
:100C80000488F589E02D80818064808381E090E094
:100C9000DF91CF911F910F910895FC0181A18823CD
:100CA00029F0A489B5898C9186FFFBCF11A2089504
:100CB000FC01A485B585FD01E05CFF4F20813181F9
:100CC0003296808191812817390779F0808191814E
:100CD000A80FB91F8C91208131812F5F3F4F2F7357
:100CE00033273183208390E008958FEF9FEF08959D
:100CF000DC011C96ED91FC911D97DF01A05CBF4FBC
:100D00002D913C91119712968D919C9111972817D6
:100D1000390739F08D919C91E80FF91F808190E09F
:100D200008958FEF9FEF0895FC0124853585F90123
:100D3000E05CFF4F80819181329620813181821B5E
:100D4000930B8F73992708958DE592E00C94940688
:100D5000CF92DF92EF92FF926B017C01AB01BC015D
:100D600080E090E00E94820CB701A60182E090E052
:100D70000E94820CB701A60184E090E00E94820CE0
:100D8000B701A60186E090E00E94820CB701A6019F
:100D900088E090E00E94820CB701A6018AE090E012
:100DA0000E94820CB701A6018CE090E00E94820CA8
:100DB000B701A6018EE090E00E94820CB701A60167
:100DC00080E190E00E94820CB701A60182E190E0F0
:100DD0000E94820CB701A60184E190E00E94820C7F
:100DE000B701A60186E190E00E94820CB701A6013E
:100DF00088E190E00E94820CB701A6018AE190E0B0
:100E00000E94820CB701A6018CE190E00E94820C46
:100E1000B701A6018EE190E00E94820CB701A60105
:100E200080E290E00E94820CB701A60182E290E08D
:100E30000E94820CB701A60184E290E00E94820C1D
:100E4000B701A60186E290E00E94820CB701A601DC
:100E500088E290E00E94820CB701A6018AE290E04D
:100E60000E94820CB701A6018CE290E00E94820CE5
:100E7000B701A6018EE290E00E94820CB701A601A4
:100E800080E390E00E94820CB701A60182E390E02B
:100E90000E94820CB701A60184E390E00E94820CBC
:100EA000B701A60186E390E00E94820CB701A6017B
:100EB00088E390E00E94820CB701A6018AE390E0EB
:100EC0000E94820CB701A6018CE390E00E94820C84
:100ED000FF90EF90DF90CF900C94C20BCF93C0E0C7
:100EE0008C2F90E02091D7023091D802821793077F
:100EF00048F440E050E0BA010E94820C0E94C20B0C
:100F0000CF5FEECFCF9108956F927F928F929F9295
:100F1000AF92BF92CF92DF92EF92FF920F931F9307
:100F2000CF93DF933C01E090E903F090EA0397014F
:100F30002F5F3F4F8091E7039091E803821793075B
:100F400008F043C0670189E0C80ED11CC601880FB4
:100F5000991F0E9499145C018090E5039090E6032C
:100F6000EC01289600E010E0E016F106A1F0B801CF
:100F700085EE93E00E947005880F991FF401E80F39
:100F8000F91F209721F080819181998388830F5FD9
:100F90001F4F2296E9CFC4010E943115B092E6039B
:100FA000A092E503D092E803C092E70384E090E0CA
:100FB0009093EC038093EB038091E9039091EA0313
:100FC00004969093EE038093ED03E091ED03F0918E
:100FD000EE03EE0FFF1F8091E5039091E603E80F0B
:100FE000F91F309729F0D3018D919C9191838083D3
:100FF0006091E9037091EA036F5F7F4F7093EA039A
:101000006093E90385EE93E00E9470059093EE03F0
:101010008093ED03DF91CF911F910F91FF90EF909F
:10102000DF90CF90BF90AF909F908F907F906F9008
:101030000895CF93DF936DE08DE592E00E940B065B
:10104000EC016AE08DE592E00E940B068C0F9D1F7B
:10105000DF91CF910895CF93DF93C091E903D091B1
:10106000EA03209711F40E94BA1561E070E085EE62
:1010700093E00E9470059093EC038093EB0321971B
:10108000D093EA03C093E903DF91CF910895CF9203
:10109000DF92EF92FF92CF93DF936B017C0140913F
:1010A000D9025091DA0260E070E08091DE02909106
:1010B000DF020E94BF15C0E0D0E08091D70290917E
:1010C000D80296958795C817D90718F0C0E0D0E0E8
:1010D0001CC0B701A6018C0F9D1F0E94820C80913D
:1010E000D7029091D80296958795B701A6018C1BDF
:1010F0009D0B0E94820C0E94C20B62E370E080E0B4
:1011000090E00E9419022196D8CF8091D702909149
:10111000D80296958795C817D907D8F440E050E0D3
:10112000BA01CE010E94820C8091D7029091D80220
:1011300040E050E0BA018C1B9D0B0E94820C0E9483
:10114000C20B62E370E080E090E00E9419022196F9
:10115000DCCFDF91CF91FF90EF90DF90CF9008959B
:101160000F931F930E943F0260934C0370934D03B3
:1011700080934E0390934F0384E493E00E94A9056B
:1011800097FF1FC00E943F0200914C0310914D0336
:1011900020914E0330914F03DC01CB01801B910B5A
:1011A000A20BB30B009148031091490320914A030D
:1011B00030914B0380179107A207B307E8F28FEF36
:1011C0009FEF1F910F9108958E3008F08E50877019
:1011D000806480937C0080917A00806480937A00A0
:1011E00080917A0086FDFCCF809178002091790073
:1011F00090E0922B089590E0FC01E95EFD4F249170
:10120000FC01ED5AFD4F3491FC01E15CFD4FE4918E
:10121000EE2309F43CC0222339F1233091F038F455
:101220002130A9F0223001F584B58F7D12C026301F
:1012300091F02730A1F02430B9F4809180008F7DA7
:1012400003C0809180008F77809380000DC084B5AB
:101250008F7784BD09C08091B0008F7703C08091E3
:10126000B0008F7D8093B000F0E0EE0FFF1FEB5CCD
:10127000FD4FA591B4919FB7F894611104C08C9172
:101280003095382302C0EC913E2B3C939FBF0895CC
:10129000CF93DF9390E0FC01ED5AFD4F2491FC01C8
:1012A000E15CFD4F8491882361F190E0880F991FE4
:1012B000FC01E35FFD4FC591D491FC01EB5CFD4F58
:1012C000A591B491611109C09FB7F89488812095C8
:1012D00082238883EC912E230BC0623061F49FB788
:1012E000F8948881322F309583238883EC912E2BBC
:1012F0002C939FBF06C08FB7F894E8812E2B2883CC
:101300008FBFDF91CF91089520E001972FEF8F3F9E
:101310009207D9F70895DF92EF92FF920F931F93F0
:10132000CF93DF93EC01298D3A8D2115310529F4F6
:1013300081E090E09B838A835AC0162FDFB6F89431
:101340008B8D81FD4DC0CE010E949D05898D9A8DAA
:1013500005960E9484098B8D98E0E92EF12C01E01E
:1013600081FF1AC0812F802321F0CE010E949D05AC
:1013700006C0E989FA8990818889892B8083898DC3
:101380009A8D0E948409000F81E0E81AF10851F754
:10139000CE010E949D051CC0812F802339F0E98970
:1013A000FA8990818889892B808303C0CE010E94AD
:1013B0009D05898D9A8D0E948409000F81E0E81AAD
:1013C000F10851F7E989FA8990818889892B80830E
:1013D000DFBE898D9A8D0E94840921E030E007C02C
:1013E000E989FA8990818889892B8083AFCFC901E7
:1013F000DF91CF911F910F91FF90EF90DF900895B3
:101400001F920F920FB60F921124EF92FF920F933B
:101410001F932F933F934F935F936F937F938F937C
:101420009F93AF93BF93CF93DF93EF93FF93C091BD
:101430009301D0919401209709F450C09B8DEE85C3
:10144000FF858D8591FF04C09081892329F446C0D2
:101450009081892309F042C08B899C890E9484096C
:1014600088E0E82EF12C10E001E08D899E890E9431
:101470008409EE85FF8590818D85892311F0102BDD
:1014800003C0802F80951823000F81E0E81AF1082F
:1014900061F78F89988D0E9484098B8D81FD10954D
:1014A000809191012091920190E001968F7399278C
:1014B00030E08217930779F0E0919101F0E0EB566C
:1014C000FE4F10838091910190E001968F739927D0
:1014D0008093910103C08B8D81608B8FFF91EF9181
:1014E000DF91CF91BF91AF919F918F917F916F913C
:1014F0005F914F913F912F911F910F91FF90EF902E
:101500000F900FBE0F901F9018951F920F920FB65D
:101510000F9211242F933F934F935F936F937F9379
:101520008F939F93AF93BF93EF93FF930E94000A13
:10153000FF91EF91BF91AF919F918F917F916F91AB
:101540005F914F913F912F910F900FBE0F901F9081
:1015500018951F920F920FB60F9211242F933F935D
:101560004F935F936F937F938F939F93AF93BF93AB
:10157000EF93FF930E94000AFF91EF91BF91AF910B
:101580009F918F917F916F915F914F913F912F919B
:101590000F900FBE0F901F9018951F920F920FB6CD
:1015A0000F9211242F933F938F939F93EF93FF9369
:1015B0002091150230911602809117029091180225
:1015C0002817390731F48091C1008F7D8093C100C5
:1015D00014C0E0911702F0911802EB52FE4F2081E7
:1015E000809117029091180201968F73992790931A
:1015F0001802809317022093C600FF91EF919F91EC
:101600008F913F912F910F900FBE0F901F901895C3
:101610001F920F920FB60F9211242F934F935F9347
:101620008F939F93EF93FF938091C00082FD1BC027
:101630002091C6008091590290915A0201968F73B1
:10164000992740915B0250915C028417950759F0ED
:10165000E0915902F0915A02E75EFD4F208390938A
:101660005A0280935902FF91EF919F918F915F9160
:101670004F912F910F900FBE0F901F901895CF9202
:10168000DF92EF92FF92CF93DF936C01990FEE08F8
:10169000FF08F7FE1BC06DE284E493E00E948B0913
:1016A000EC0144275527BA014C195D096E097F09E1
:1016B0002AE084E493E00E949E018C0F9D1FDF913D
:1016C000CF91FF90EF90DF90CF9008952AE0B7017F
:1016D000A60184E493E0DF91CF91FF90EF90DF903B
:1016E000CF900C949E01EF92FF920F931F93CF9394
:1016F000DF93CDB7DEB7C058D1090FB6F894DEBF7F
:101700000FBECDBF40E850E0C557DF4F68817981FB
:10171000CB58D0408E010F5F1F4FC8010E9422148A
:10172000C158DF4F1882CF57D040F80101900020F8
:10173000E9F77F01F80101900020E9F7B8016E1B7D
:101740007F0B60587F4F9E0123573F4FA801C70171
:101750000E94D615C058DF4F1882C058D040B7013C
:101760008DE592E00E948901C058DF4F0FB6F894D2
:10177000DEBF0FBECDBFDF91CF911F910F91FF90C4
:10178000EF9008950F931F93CF93DF93CDB7DEB7FC
:1017900029970FB6F894DEBF0FBECDBF8091DE0251
:1017A0009091DF02892B09F4A2C00E94F4010091FC
:1017B000E4021091E5022091E6023091E702DC019B
:1017C000CB01801B910BA20BB30B8C329140A10576
:1017D000B10558F3F8948091D9029091DA029A8376
:1017E0008983E091DE02F091DF02DF0111968081B2
:1017F00089879091D302E091E802F091E90280910B
:10180000EA02992309F42EC09081982B9887908141
:10181000809589238F838F818C8388E08B83588583
:101820006F8149853B812C8189819A81508347FD55
:10183000252F3A952083262F39F0441F00C0000041
:101840006083000000C0F2CF38E04D91608300005B
:10185000019761F7F093E902E093E80249873B833F
:101860002C8338C09081982B98879081809589230C
:101870008F838F818E8388E08D8358856F81498522
:101880003D812E8189819A81508347FD252F00C09B
:1018900000C0208300C000C000C000C000C0608342
:1018A0000000262F3A9541F0441F000000C000C000
:1018B00000C000C000C0E8CF38E04D9100C0608398
:1018C00000C0019709F7F093E902E093E802498725
:1018D0003D832E839A83898378940E94F4016093D8
:1018E000E4027093E5028093E6029093E702299662
:1018F0000FB6F894DEBF0FBECDBFDF91CF911F9121
:101900000F9108958F929F92AF92BF92CF92DF92E4
:10191000EF92FF92CF93DF932091D7023091D802BC
:101920008217930708F057C04B01AA24BB24F82D57
:10193000C52ED62EE72EFF24AC2DE42F2091DD02FC
:10194000222361F0829E40011124F92D2C9D60011B
:101950001124AD2D249FE0011124ED2F3091E302DD
:10196000B091E002E090DE02F090DF023B1308C08D
:101970009C01220F331F820F931F8E0D9F1D19C0D4
:10198000880F991F880F991F8E0D9F1D472F552770
:1019900066277727EC01C30FD11D222349F030E0E1
:1019A000249F7001259FF00C349FF00C11244F2DC3
:1019B00048832091E002EC01C20FD11DF8832091F1
:1019C000E102EC01C20FD11DA8832091E202DC01EB
:1019D000A20FB11DEC93DF91CF91FF90EF90DF90BC
:1019E000CF90BF90AF909F908F900895CF93DF934B
:1019F000CDB7DEB72D970FB6F894DEBF0FBECDBFC3
:101A0000789484B5826084BD84B5816084BD85B5D9
:101A1000826085BD85B5816085BD80916E008160E5
:101A200080936E001092810080918100826080938B
:101A3000810080918100816080938100809180008D
:101A40008160809380008091B10084608093B100B8
:101A50008091B00081608093B00080917A008460B2
:101A600080937A0080917A00826080937A008091DE
:101A70007A00816080937A0080917A0080688093F8
:101A80007A001092C10010925E0310925D031092D2
:101A90005C0310925B0310925A0310925903109248
:101AA00058031092570383E491E020E030E0FC01FA
:101AB0004591559165917491403855426105710584
:101AC00059F54CE0429FC001439F900D1124FC0149
:101AD000E95BFE4F259134913093580320935703CF
:101AE000FC01E75BFE4F2591349130935A0320931C
:101AF0005903FC01E55BFE4F2591349130935C0363
:101B000020935B03FC01E35BFE4F859194919093DE
:101B10005E0380935D0307C02F5F3F4F0C962D300F
:101B2000310509F0C4CF80915B0390915C03892B50
:101B300009F448C0209150032631F0F54091680027
:101B4000283058F031E02E3008F430E091E0892F51
:101B500001C0880F3A95EAF701C084E0842B809396
:101B60006800283038F02E3040F0263148F4ECE69A
:101B7000F0E008C0EDE6F0E005C0EBE6F0E002C002
:101B8000E0E0F0E03081283030F491E001C0990FBE
:101B90002A95EAF70EC0422F50E02E3018F4485034
:101BA000510902C04E50510991E001C0990F4A9568
:101BB000EAF7892F832B808380915D0390915E03E8
:101BC0000E948409809193019091940184549340E0
:101BD00091F080915F038E7F80935F038FB7F894BD
:101BE000109291011092920124E433E03093940119
:101BF000209393018FBF84E493E00E94C3054DE5D9
:101C000052E0E0917102F091720281E090E09C015B
:101C100000907D0202C0220F331F0A94E2F7208356
:101C2000E0916D02F0916E021082E0916F02F091EE
:101C3000700220E1208310927E02E0917302F09105
:101C4000740260819C010090790202C0220F331F50
:101C50000A94E2F7262B2083E0917302F09174023C
:101C600060819C0100907A0202C0220F331F0A9407
:101C7000E2F7262B2083E0917302F09174026081D9
:101C80009C0100907B0202C0220F331F0A94E2F7EE
:101C9000262B2083E0917302F09174022081009042
:101CA0007C0202C0880F991F0A94E2F78095822374
:101CB00080838FED91E09F938F935F934F930E946A
:101CC000730B8DE592E00E944D068091DB029091AE
:101CD000DC020F900F900F900F9097FD08C061E00D
:101CE0000E94480960E08091DB020E94FB0881E0CD
:101CF0008093D6020E94C20B6091DD02633321F112
:101D00002091DE023091DF02615031F070E08FEF00
:101D100092E30E94931802C060E070E0F9014091E4
:101D2000D9025091DA02CF01821B930B84179507D9
:101D300040F44081469FC001479F900D112491932C
:101D4000EECF83E38093DD0260E571E08DE592E004
:101D50000E9489010E9419081C861B8681E090E080
:101D60009A87898782E090E098878F8383E090E06C
:101D70009E838D8384E090E09C838B8385E090E05C
:101D80009A838983CE010B960E948407CE0109961F
:101D90000E948407CE0107960E948407CE01059613
:101DA0000E948407CE0103960E948407CE0101960B
:101DB0000E94840753E0252E312C62E0862E912C60
:101DC0007FEEE72E71E0F72E0DE512E0EAEFCE2E62
:101DD000E1E0DE2EF4E0AF2EF2E0BF2E0E944B02D7
:101DE00084E493E00E94D205892BE9F10E94B008B7
:101DF000FC0197FD0DC08D32910509F4F9C1C09722
:101E00000A9708F4F5C184E493E00E94EA05EECF56
:101E1000412C512C320184E493E00E94EA050A9798
:101E200011F5C2015092900140928F01009729F460
:101E300090928E0180928D0113C08130910529F41A
:101E400050928E0140928D010BC0029729F430927E
:101E50008E0120928D0104C010928E0110928D018E
:101E600081E080938C0180918F0190919001029785
:101E7000029708F41DC180918C01882309F418C1D0
:101E800061E08091EF020E94FB080E943F02609394
:101E9000FE027093FF0280930003909301030E945F
:101EA0003F024090FE025090FF026090000370904D
:101EB0000103E8E24E0E511C611C711C641575058E
:101EC0008605970560F360E08091EF020E94FB08B1
:101ED00061E08091F0020E94FB080E943F02609343
:101EE000FE027093FF0280930003909301030E940F
:101EF0003F024090FE025090FF02609000037090FD
:101F0000010328E2420E511C611C711C6415750509
:101F10008605970560F360E08091F0020E94FB085F
:101F200061E08091F1020E94FB080E943F026093F1
:101F3000FE027093FF0280930003909301030E94BE
:101F40003F024090FE025090FF02609000037090AC
:101F50000103E8E24E0E511C611C711C64157505ED
:101F60008605970560F360E08091F1020E94FB080E
:101F700061E08091F2020E94FB080E943F026093A0
:101F8000FE027093FF0280930003909301030E946E
:101F90003F024090FE025090FF026090000370905C
:101FA000010328E2420E511C611C711C6415750569
:101FB0008605970560F360E08091F2020E94FB08BD
:101FC0008091EB020E94E40897FD01969595879514
:101FD00090933D0380933C038091EC020E94E408BF
:101FE00097FD01969595879590933F0380933E03C7
:101FF0008091ED020E94E40897FD019695958795E2
:1020000090934103809340038091EE020E94E40884
:1020100097FD01969C0135952795309343032093B6
:10202000420380913E0390913F03909389018093F6
:1020300088014091400350914103509387014093A0
:102040008601309385012093840120913C033091D7
:102050003D0330938301209382010E943F0B66E28F
:1020600071E084E493E00E9489018091860190915F
:1020700087010E943F0B66E271E084E493E00E94D6
:10208000890180918401909185010E943F0B66E255
:1020900071E084E493E00E94890180918201909133
:1020A00083010E943F0B6AE084E493E00E948B0965
:1020B00080918D0190918E010097E1F08130910522
:1020C00019F4BF92AF920AC08230910519F4DF92E1
:1020D000CF9204C0039771F4FF92EF921F930F9376
:1020E0000E94730B10928E0110928D010F900F9031
:1020F0000F900F9080918B01882309F476C0809116
:10210000E9039091EA03892B09F46FC080918A0159
:1021100081114BC00E944B02E091EB03F091EC0364
:10212000EE0FFF1F8091E5039091E603E80FF91F82
:1021300080819181009749F4609197027091980293
:102140008091990290919A020BC08130910579F4A7
:102150006091930270919402809195029091960201
:102160000E9447080E946E070E942B083EC08230E2
:10217000910549F460918F027091900280919102D3
:1021800090919202EDCF8330910549F460918B02DA
:1021900070918C0280918D0290918E02E1CF8430FB
:1021A000910551F2059709F5D3CF10928B010E944A
:1021B0006E078091E9039091EA03892B19F00E9440
:1021C0002B08F7CF65E671E08DE592E00E9489016A
:1021D0004091E9035091EA0360E070E02AE08DE568
:1021E00092E00E949E010E9419080E94A406F6CD6A
:1021F000412C512C32011D86E130F105E9F0ED3220
:10220000F105C1F0CF01C0970A97B0F4AAE0B0E0A1
:10221000A30192010E945D142F01FF0F6608770849
:10222000460E571E681E791E80E3481A5108610841
:10223000710802C0E1E0ED8784E493E00E94EA05C2
:102240000E94B008FC01C0970A97B0F2E130F10596
:1022500099F22D85222309F4DECD70946094509478
:102260004094411C511C611C711CD5CD8091DE0233
:102270009091DF020E9431158091DB029091DC0287
:1022800097FD03C060E00E9448098AE191E09093C5
:1022900045038093440320915003263140F52830B4
:1022A00028F02E3030F4EBE6F0E005C0EDE6F0E08B
:1022B00002C0ECE6F0E03081283038F481E090E0B4
:1022C00001C0880F2A95EAF70FC0422F50E02E3048
:1022D00018F44850510902C04E50510981E090E075
:1022E00001C0880F4A95EAF7809583238083809107
:1022F000DC039091DD030E94311585EE93E00C9490
:102300008005EF92FF920F931F93CF93DF93CDB78A
:10231000DEB72B970FB6F894DEBF0FBECDBF10927D
:10232000600210925F0288EE93E0A0E0B0E080933C
:10233000610290936202A0936302B09364028AE008
:1023400091E090935E0280935D0289E192E0909328
:102350006A028093690285ED91E090936C0280930C
:102360006B0285EC90E090936E0280936D0284EC9A
:1023700090E09093700280936F0280EC90E09093D5
:1023800072028093710281EC90E0909374028093CA
:10239000730282EC90E0909376028093750286EC53
:1023A00090E0909378028093770284E080937902A2
:1023B00083E080937A0287E080937B0285E08093BC
:1023C0007C0281E080937D021E821D8248E0E42E23
:1023D000F12CFC82EB8280E190E00E9499149A83B8
:1023E000898304E010E018870F831A870987109209
:1023F000EA031092E903F092E803E092E70380E138
:1024000090E00E9499149093E6038093E503109363
:10241000EC030093EB031093EE030093ED0300E055
:1024200010E08D819E810817190780F4E980FA80F9
:10243000B801CE0101960E947005880F991F8E0D7C
:102440009F1D0E9484070F5F1F4FEBCFCE010196A7
:102450000E9480051092DB031092DA0388E090E07E
:102460009093DF038093DE031092E1031092E00368
:1024700080E590E00E9499149093DD038093DC0343
:102480001092E4031092E303109247031092460364
:1024900088EE93E0A0E0B0E0809348039093490376
:1024A000A0934A03B0934B038AE191E090934503D4
:1024B00080934403109258031092570310925A03CA
:1024C0001092590310925C0310925B0310925E030A
:1024D00010925D0380915F038E7F8D7F80935F03F9
:1024E00061E088E00E94480961E088E00E94FB0802
:1024F000EBE5F2E0E491E0935403E7E4F2E0E491E9
:10250000F0E0EE0FFF1FEB5CFD4F859194919093EF
:1025100056038093550360E08CE00E944809809147
:102520005F0381FD04C061E08CE00E94FB088CE049
:1025300080935003EFE5F2E0E491E0935103EBE484
:10254000F2E0E491F0E0EE0FFF1FE55DFD4F8591B5
:10255000949190935303809352031092F40210923B
:10256000F3021092EB0281E08093EC0282E0809310
:10257000ED0283E08093EE0286E08093EF028BE031
:102580008093F0028AE08093F10289E08093F20266
:1025900061E086E00E94480961E08091F0020E94BB
:1025A000480961E08091F1020E94480961E0809150
:1025B000F2020E9448091092120310921303109223
:1025C00014031092150381E090E09093DB03809355
:1025D000DA038091DE039091DF03049780F5009188
:1025E000DC031091DD0384E090E09093DF0380939F
:1025F000DE0388E290E00E9499148093DC039093BC
:10260000DD03A8019C0180E090E06091E0037091FF
:10261000E1038617970780F42115310539F06AE048
:10262000FA01D90101900D926A95E1F70196465F92
:102630005F4F265F3F4FE9CFC8010E9431151092CE
:10264000FE021092FF0210920003109201031092FA
:1026500002031092030310920403109205031092D8
:1026600006031092070310920803109209031092B8
:102670000A0310920B0310920C0310920D03109298
:102680000E0310920F031092100310921103109278
:10269000D6021092DD021092E4021092E50210922E
:1026A000E6021092E70281E08093E3028093E00269
:1026B0001092E10292E09093E2028093D30284EBC5
:1026C00090E09093DA028093D9020E94991490933B
:1026D000DF028093DE02009761F024EBFC0111928F
:1026E0002A95E9F78CE390E09093D8028093D70283
:1026F00008C01092DA021092D9021092D8021092F9
:10270000D70285E090E09093DC028093DB02809119
:10271000D602882341F061E085E00E94480960E02C
:1027200085E00E94FB08E4E4F2E0E491F0E0EE0FC3
:10273000FF1FEB5CFD4F859194919093E90280938C
:10274000E802E8E5F2E0E491E093EA028CE38093AA
:102750009F028EE38093A0021092A1021092B80211
:102760001092CC021092CD021092CE0280E096E63A
:10277000AFEFB0E080939B0290939C02A0939D02E8
:10278000B0939E0240E050E06FEF70E040939702FC
:10279000509398026093990270939A0240E05FEF21
:1027A00060E070E04093930250939402609395022E
:1027B000709396024FEF50E060E070E040938F021C
:1027C00050939002609391027093920240E05FEF09
:1027D0006FEF70E040938B0250938C0260938D02F8
:1027E00070938E0240E056E666E670E04093870202
:1027F000509388026093890270938A024FEF5FEFD3
:1028000066E670E0409383025093840260938502F1
:102810007093860280937F0290938002A09381023E
:10282000B09382022B960FB6F894DEBF0FBECDBFD9
:10283000DF91CF911F910F91FF90EF900895F89441
:102840000C94F818FB01DC014150504048F0059011
:102850000D920020C9F701C01D9241505040E0F791
:10286000089540EF53E00E9436140895FA01A191B3
:10287000B081009719F41097E1F0CD01DC01CD0192
:102880000D90002011F4C00113C0FB0121912223FF
:1028900019F02015D9F7F3CFFB012191201519F478
:1028A0001E92119606C02223C1F70D900020A1F7B9
:1028B000D001FA01A193B08308950E948A14A59FC4
:1028C000900DB49F900DA49F800D911D112408952B
:1028D000A1E21A2EAA1BBB1BFD010DC0AA1FBB1F24
:1028E000EE1FFF1FA217B307E407F50720F0A21B96
:1028F000B30BE40BF50B661F771F881F991F1A9403
:1029000069F760957095809590959B01AC01BD012C
:10291000CF010895A29FB001B39FC001A39F700D86
:10292000811D1124911DB29F700D811D1124911DD7
:1029300008950F931F93CF93DF938230910510F486
:1029400082E090E0E091F403F091F50320E030E0C4
:10295000A0E0B0E0309719F14081518102811381EC
:1029600048175907C8F08417950769F4109731F094
:1029700012960C93129713961C9327C00093F4039E
:102980001093F50322C02115310519F042175307A2
:1029900018F49A01BD01EF01DF01F801DBCF211529
:1029A0003105F9F0281B390B2430310580F48A8178
:1029B0009B816115710521F0FB019383828304C023
:1029C0009093F5038093F403FE01329644C0FE0118
:1029D000E20FF31F819391932250310939832883A9
:1029E0003AC02091F2033091F303232B41F420915C
:1029F0000201309103013093F3032093F2032091FD
:102A00000001309101012115310541F42DB73EB788
:102A10004091040150910501241B350BE091F20314
:102A2000F091F303E217F307A0F42E1B3F0B2817D6
:102A3000390778F0AC014E5F5F4F2417350748F037
:102A40004E0F5F1F5093F3034093F20381939193D2
:102A500002C0E0E0F0E0CF01DF91CF911F910F9134
:102A60000895CF93DF93009709F481C0FC0132975A
:102A700013821282A091F403B091F503109781F4B0
:102A800020813181820F931F2091F2033091F30353
:102A90002817390751F5F093F303E093F20367C069
:102AA000ED0120E030E0CE17DF0740F44A815B8182
:102AB0009E0141155105F1F0EA01F5CFD383C283A0
:102AC00040815181840F951FC817D90759F4888117
:102AD0009981840F951F0296918380838A819B81BF
:102AE000938382832115310529F4F093F503E09354
:102AF000F4033DC0E901FB83EA8349915991C40F76
:102B0000D51FEC17FD0761F480819181840F951F1B
:102B10000296E90199838883828193819B838A83CA
:102B2000E0E0F0E012968D919C911397009719F0D8
:102B3000FD01DC01F7CF8D919C9111979D012E5FD6
:102B40003F4F820F931F2091F2033091F303281718
:102B5000390769F4309729F41092F5031092F403C1
:102B600002C013821282B093F303A093F203DF91A9
:102B7000CF91089581E090E0F8940C94F818DC016E
:102B800001C06D9341505040E0F70895FB01DC0116
:102B90008D91019080190110D9F3990B0895FB01D3
:102BA000DC0101900D920020E1F70895AEE0B0E065
:102BB000ECEDF5E10C94C9188C01FA0186E08C83E8
:102BC0001A83098377FF02C060E070E8CB010197A8
:102BD0009E838D83A901BF01CE0101960E9402163A
:102BE0004D815E8157FD0AC02F81388542175307FA
:102BF0000CF49A01F801E20FF31F10822E96E4E024
:102C00000C94E518ABE0B0E0E8E0F6E10C94BB18FA
:102C10006C017B018A01FC0117821682838181FF8E
:102C2000CCC1CE0101963C01F6019381F70193FDE1
:102C3000859193FF81917F01882309F4BAC1853280
:102C400039F493FD859193FF81917F01853229F4B9
:102C5000B60190E00E94F917E7CF912C212C312C7E
:102C6000FFE1F315D8F08B3279F038F4803279F047
:102C70008332A1F4232D20611DC08D3261F0803399
:102C800069F4232D216016C0832D8260382EE32D38
:102C9000E4603E2E2AC0F32DF8601DC037FC2DC025
:102CA00020ED280F2A3040F08E32B9F436FC81C175
:102CB000232D2064322E19C036FE06C08AE0989E6D
:102CC000200D1124922E11C0EAE02E9E200D112419
:102CD000222EF32DF0623F2E08C08C3621F4832D76
:102CE0008068382E02C0883641F4F70193FD859143
:102CF00093FF81917F018111B3CF982F9F7D9554D0
:102D0000933028F40C5F1F4F9FE399830DC08336E7
:102D100031F0833771F0833509F059C021C0F801D3
:102D2000808189830E5F1F4F88248394912C5301E7
:102D300013C02801F2E04F0E511CF801A080B180B1
:102D400036FE03C0692D70E002C06FEF7FEFC50152
:102D50000E94EE174C018201F32DFF773F2E16C023
:102D6000280122E0420E511CF801A080B18036FEFD
:102D700003C0692D70E002C06FEF7FEFC5010E94B4
:102D8000E3174C01F32DF0683F2E820133FC1BC08A
:102D9000822D90E088169906B0F4B60180E290E0AA
:102DA0000E94F9172A94F4CFF50137FC859137FE7C
:102DB00081915F01B60190E00E94F91721102A94D9
:102DC00021E0821A91088114910471F7E8C08436D9
:102DD00011F0893641F5F80137FE07C06081718135
:102DE000828193810C5F1F4F08C060817181072E23
:102DF000000C880B990B0E5F1F4FF32DFF763F2EB3
:102E000097FF09C090958095709561957F4F8F4F82
:102E10009F4FF0683F2E2AE030E0A3010E94351852
:102E2000882E861845C0853731F4232D2F7EB22E8B
:102E30002AE030E025C0932D997FB92E8F36C1F05E
:102E400018F4883579F0B5C0803719F0883721F04B
:102E5000B0C0E92FE061BE2EB4FE0DC0FB2DF460C2
:102E6000BF2E09C034FE0AC0292F2660B22E06C02C
:102E700028E030E005C020E130E002C020E132E08F
:102E8000F801B7FE07C060817181828193810C5F78
:102E90001F4F06C06081718180E090E00E5F1F4F80
:102EA000A3010E943518882E8618FB2DFF773F2E30
:102EB00036FE0DC0232D2E7FA22E891458F434FE29
:102EC0000BC032FC09C0832D8E7EA82E05C0B82C05
:102ED000A32C03C0B82C01C0B92CA4FE0FC0FE0166
:102EE000E80DF11D8081803321F49A2D997EA92E61
:102EF00009C0A2FE06C0B394B39404C08A2D86789C
:102F000009F0B394A3FC11C0A0FE06C0B21488F46B
:102F1000280C922C9B180EC0B21460F4B60180E20B
:102F200090E00E94F917B394F7CFB21418F42B185D
:102F300002C0982C212CA4FE10C0B60180E390E0C2
:102F40000E94F917A2FE17C0A1FC03C088E790E019
:102F500002C088E590E0B6010CC08A2D867859F051
:102F6000A1FE02C08BE201C080E2A7FC8DE2B601A7
:102F700090E00E94F917891438F4B60180E390E0DC
:102F80000E94F9179A94F7CF8A94F301E80DF11D86
:102F90008081B60190E00E94F9178110F5CF2220C0
:102FA00009F442CEB60180E290E00E94F9172A941B
:102FB000F6CFF6018681978102C08FEF9FEF2B96A7
:102FC000E2E10C94D718FC010590615070400110AB
:102FD000D8F7809590958E0F9F1F0895FC01615042
:102FE000704001900110D8F7809590958E0F9F1F2B
:102FF00008950F931F93CF93DF93FB01238121FD4E
:1030000003C08FEF9FEF2CC022FF16C0468157816F
:10301000248135814217530744F4A081B1819D0179
:103020002F5F3F4F318320838C93268137812F5F21
:103030003F4F3783268314C08B01EC01FB010084D2
:10304000F185E02D0995892BE1F6D80116968D9131
:103050009C911797019617969C938E931697CE0185
:10306000DF91CF911F910F910895FA01AA2728307F
:1030700051F1203181F1E8946F936E7F6E5F7F4F45
:103080008F4F9F4FAF4FB1E03ED0B4E03CD0670FC1
:10309000781F891F9A1FA11D680F791F8A1F911D14
:1030A000A11D6A0F711D811D911DA11D20D009F464
:1030B00068943F912AE0269F11243019305D3193A6
:1030C000DEF6CF010895462F4770405D4193B3E08F
:1030D0000FD0C9F7F6CF462F4F70405D4A3318F036
:1030E000495D31FD4052419302D0A9F7EACFB4E0E7
:1030F000A6959795879577956795BA95C9F700979F
:103100006105710508959B01AC010A2E069457953F
:10311000479537952795BA95C9F7620F731F841F96
:10312000951FA01D0895AA1BBB1B51E107C0AA1F34
:10313000BB1FA617B70710F0A61BB70B881F991F58
:103140005A95A9F780959095BC01CD01089597FBFC
:10315000072E16F4009407D077FD09D00E9493182B
:1031600007FC05D03EF4909581959F4F089570958A
:1031700061957F4F08952F923F924F925F926F9289
:103180007F928F929F92AF92BF92CF92DF92EF92F7
:10319000FF920F931F93CF93DF93CDB7DEB7CA1B78
:1031A000DB0B0FB6F894DEBF0FBECDBF09942A88A3
:1031B000398848885F846E847D848C849B84AA844B
:1031C000B984C884DF80EE80FD800C811B81AA81D8
:1031D000B981CE0FD11D0FB6F894DEBF0FBECDBFA3
:1031E000ED010895EE0FFF1F0590F491E02D099475
:1031F00011E0C5E3D1E004C0FE010E94F21821965F
:0A320000C633D107C9F7F894FFCFD9
:10320A000000F6032000000000000B06610194068E
:10321A00580678064D06000000008B096101D205A8
:10322A00EA05A905C3052C0073006C6500667200E7
:10323A0062610074006D0066006C70007270006656
:10324A0070007700780079007A0071006B006300E3
:10325A00656E74726120696E207365747461636F40
:10326A006C6F72690073697A655F66696E616C6515
:02327A003A0018
:00000001FF
