:100000000C94AE000C94D6000C94D6000C94D60040
:100010000C94D6000C94D6000C94D6000C94D60008
:100020000C94D6000C94D6000C94D6000C94D600F8
:100030000C94D6000C94D6000C94D6000C94D600E8
:100040000C9461030C94D6000C942A030C94EF02D8
:100050000C94D6000C94D6000C94D6000C94D600C8
:100060000C94D6000C94D6004E414E494E4954593A
:10007000494E46CDCCCC3D0AD7233C17B7D1387773
:10008000CC2B329595E6241FB14F0A000020410089
:1000900000C84200401C4620BCBE4CCA1B0E5AAED3
:1000A000C59D743C6865693E003E0020002000202C
:1000B00000200020003C50726573737572657320D8
:1000C0006E756D20003E0020002000200020003CC6
:1000D00050726573737572657320617265200000DC
:1000E000000000240027002A003E003C4E6F2070D4
:1000F0007573682C2072657475726E20003E003C2A
:100100004F6B20707573682C2072657475726E2049
:1001100000000000070002010000030406000000C8
:1001200000000000000102040810204080010204C9
:1001300008102001020408102000000000250028FB
:10014000002B00040404040404040402020202025A
:100150000203030303030300740A640A11241FBE8D
:10016000CFEFD8E0DEBFCDBF11E0A0E0B1E0EEE31D
:10017000F2E202C005900D92AC35B107D9F726E046
:10018000ACE5B1E001C01D92A536B207E1F710E081
:10019000CDEAD0E004C02197FE010E940C11CC3AB8
:1001A000D107C9F70E94FB050C94700B0C9400005A
:1001B000CF92DF92EF92FF920F931F93CF93DF9333
:1001C0006C01EB017B01E40EF51E00E010E0CE15A2
:1001D000DF0561F06991D601ED91FC910190F0810C
:1001E000E02DC6010995080F191FF1CFC801DF9155
:1001F000CF911F910F91FF90EF90DF90CF900895D6
:1002000008950F931F93CF93DF93FC01A685B785C5
:100210008D01005C1F4FE8018881998101968F73E1
:100220009927AD014E5B5F4FEA0128813981821722
:100230009307D1F3E80128813981A20FB31F6C9392
:10024000A685B785A05CBF4F11969C938E93A68917
:10025000B7892C9181E090E0078C02C0880F991F2C
:100260000A94E2F7822B8C9381E081A30488F589BC
:10027000E02D80818064808381E090E0DF91CF91E8
:100280001F910F910895FC0181A1882329F0A48971
:10029000B5898C9186FFFBCF11A20895FC01A4853E
:1002A000B585FD01E05CFF4F208131813296808170
:1002B00091812817390779F080819181A80FB91FA2
:1002C0008C91208131812F5F3F4F2F7333273183F2
:1002D000208390E008958FEF9FEF0895DC011C9636
:1002E000ED91FC911D97DF01A05CBF4F2D913C91DA
:1002F000119712968D919C9111972817390739F013
:100300008D919C91E80FF91F808190E008958FEF07
:100310009FEF0895FC0124853585F901E05CFF4FCE
:1003200080819181329620813181821B930B8F7362
:10033000992708958DE092E00C948A013FB7F894D4
:1003400080915D0190915E01A0915F01B09160018B
:1003500026B5A89B05C02F3F19F00196A11DB11D20
:100360003FBFBA2FA92F982F8827820F911DA11D5B
:10037000B11DBC01CD0142E0660F771F881F991F98
:100380004A95D1F708954F925F926F927F928F9224
:100390009F92AF92BF92CF92DF92EF92FF920F9314
:1003A0001F93CF93DF9300D000D0CDB7DEB78091FD
:1003B0006B050E94E4059093700580936F05AAE693
:1003C000B5E08C910E94E4059093720580937105CD
:1003D00080916C050E94E4059093740580937305E9
:1003E00080916D050E94E4059093760580937505D4
:1003F00080916E050E94E4058C01909378058093AE
:10040000770560916F0570917005072E000C880BC1
:10041000990B0E94150D20E030E040EA50E40E9464
:10042000740D20E030EC4FE754E40E9446102B019D
:100430003C016093790570937A0580937B059093D6
:100440007C056091710570917205072E000C880B78
:10045000990B0E94150D20E030E040EA50E40E9424
:10046000740D20E030EC4FE754E40E9446104B013D
:100470005C0160937D0570937E0580937F0590936A
:1004800080056091730570917405072E000C880B30
:10049000990B0E94150D20E030E040EA50E40E94E4
:1004A000740D20E030EC4FE754E40E9446106B01DD
:1004B0007C016093810570938205809383059093FE
:1004C00084056091750570917605072E000C880BE8
:1004D000990B0E94150D20E030E040EA50E40E94A4
:1004E000740D20E030EC4FE754E40E94461069831D
:1004F0007A838B839C8360938505709386058093B4
:10050000870590938805B801110F880B990B0E94FD
:10051000150D20E030E040EA50E40E94740D20E028
:1005200030EC4FE754E40E944610609389057093C5
:100530008A0580938B0590938C05409267015092B9
:1005400068016092690170926A0180926B019092D9
:100550006C01A0926D01B0926E01C0927B01D092AD
:100560007C01E0927D01F0927E0129813A814B81EC
:100570005C8120936F01309370014093710150931F
:100580007201609377017093780180937901909361
:100590007A010F900F900F900F90DF91CF911F91E4
:1005A0000F91FF90EF90DF90CF90BF90AF909F9012
:1005B0008F907F906F905F904F9008958091690524
:1005C000882361F01092690586E191E00E94F203B0
:1005D00084E291E00E94F2030C94720408951F9249
:1005E0000F920FB60F9211242F933F938F939F93E7
:1005F000EF93FF932091C5013091C6018091C7010F
:100600009091C8012817390731F48091C1008F7D7E
:100610008093C10014C0E091C701F091C801EB576D
:10062000FE4F20818091C7019091C80101968F7380
:1006300099279093C8018093C7012093C600FF912A
:10064000EF919F918F913F912F910F900FBE0F903F
:100650001F9018951F920F920FB60F9211242F938F
:100660004F935F938F939F93EF93FF938091C0007D
:1006700082FD1BC02091C6008091090290910A0260
:1006800001968F73992740910B0250910C028417A9
:10069000950759F0E0910902F0910A02E753FE4FE5
:1006A000208390930A0280930902FF91EF919F911A
:1006B0008F915F914F912F910F900FBE0F901F90D0
:1006C00018951F920F920FB60F9211242F933F93FC
:1006D0008F939F93AF93BF93809173019091740117
:1006E000A0917501B091760130915C0123E0230F58
:1006F0002D3720F40196A11DB11D05C026E8230F5A
:100700000296A11DB11D20935C018093730190930B
:100710007401A0937501B093760180915D01909171
:100720005E01A0915F01B09160010196A11DB11D14
:1007300080935D0190935E01A0935F01B09360018F
:10074000BF91AF919F918F913F912F910F900FBECD
:100750000F901F90189590E0FC01EF5EFE4F2491E2
:10076000FC01EB5DFE4F3491FC01ED5BFE4FE4912B
:10077000EE23B9F1222339F1233091F038F42130FE
:10078000A9F0223001F584B58F7D12C0263091F09A
:100790002730A1F02430B9F4809180008F7D03C010
:1007A000809180008F77809380000DC084B58F7713
:1007B00084BD09C08091B0008F7703C08091B000E4
:1007C0008F7D8093B000F0E0EE0FFF1FE75CFE4FDF
:1007D000A591B4919FB7F8948C91309538233C93B0
:1007E0009FBF0895009769F0FC0101900020E9F790
:1007F0003197AF01481B590BBC018DE092E00C947E
:10080000D80080E090E008958F929F92AF92BF92BF
:10081000EF92FF920F931F93CF93DF93CDB7DEB785
:10082000A1970FB6F894DEBF0FBECDBF162F042FD1
:1008300019A2423008F40AE07E0121E2E20EF11C26
:10084000802E912CA12CB12C612FA50194010E9426
:10085000770E029F1019112481E0E81AF1081A306E
:1008600014F4105D01C0195CF7011083122F732F6F
:10087000CA01232B242B252B39F7C7010E94F20331
:10088000A1960FB6F894DEBF0FBECDBFDF91CF911A
:100890001F910F91FF90EF90BF90AF909F908F901E
:1008A0000895CF92DF92EF92FF92CF93DF936B0187
:1008B0007C016DE28DE092E00E940101EC0166276F
:1008C0007727CB016C197D098E099F094AE00E94A8
:1008D00004048C0F9D1FDF91CF91FF90EF90DF906C
:1008E000CF900895CF93DF936DE08DE092E00E946A
:1008F0000101EC016AE08DE092E00E9401018C0FA1
:100900009D1FDF91CF9108950F931F93CF93DF9396
:1009100000E010E0FC016491EC012196662341F0B7
:100920008DE092E00E940101080F191FCE01F2CF65
:10093000C801DF91CF911F910F910895CF93DF935D
:100940000E948404EC010E9472048C0F9D1FDF91B1
:10095000CF910895BC01990F880B990B97FD0C94CA
:1009600051044AE00C940404811111C08BEE90E014
:100970000E9484048BE491E00E94F2034AE060E06C
:1009800070E0CB010E94040489EE90E00EC08FEF6E
:1009900090E00E9484048BE491E00E94F20381E0E5
:1009A00090E00E94AA048DEF90E00C949E044F9278
:1009B0005F926F927F928F929F92AF92BF92CF92EF
:1009C000DF92EF92FF92CF936B017C019B01AC0110
:1009D0000E94F310882319F08DE491E027C04601AE
:1009E0005701E894B7F82FEF3FEF4FE75FE7C501F6
:1009F000B4010E94F31081110DC02FEF3FEF4FE7BC
:100A00005FE7C501B4010E940E0D18161CF481E5C4
:100A100091E00CC02FEF3FEF4FE75FE4C701B60155
:100A20000E94EE1018168CF485E591E0CF91FF90AE
:100A3000EF90DF90CF90BF90AF909F908F907F907E
:100A40006F905F904F900C94F2032FEF3FEF4FE7C2
:100A50005FECC701B6010E940E0D87FDE5CF20E0D7
:100A600030E0A901C701B6010E940E0D87FF0BC03F
:100A70006DE28DE092E00E9401015C01F7FAF094D2
:100A8000F7F8F09402C0A12CB12C2AE037ED43EA2C
:100A90005BE3C701B6010E94DA0F2B013C010E9403
:100AA000BF106B017C010E94130D9B01AC01C301BF
:100AB000B2010E94D90F2B013C014AE0C701B601E7
:100AC0000E9404047C01EA0CFB1C89E591E00E9471
:100AD000F203E80EF91EC3E0C15059F120E030E006
:100AE00040E251E4C301B2010E94740D2B013C01AC
:100AF0000E94B8104B01770FAA08BB08B7FE05C0CB
:100B0000C501B4010E94510405C04AE0C501B40109
:100B10000E940404E80EF91EC501B4010E94150DDF
:100B20009B01AC01C301B2010E94D90F2B013C0112
:100B3000D3CFC701CF91FF90EF90DF90CF90BF90C0
:100B4000AF909F908F907F906F905F904F9008959F
:100B5000CF93DF9390E0FC01EB5DFE4F2491FC010D
:100B6000ED5BFE4F8491882361F190E0880F991F1F
:100B7000FC01E152FF4FC591D491FC01E75CFE4FAF
:100B8000A591B491611109C09FB7F894888120950F
:100B900082238883EC912E230BC0623061F49FB7CF
:100BA000F8948881322F309583238883EC912E2B03
:100BB0002C939FBF06C08FB7F894E8812E2B288313
:100BC0008FBFDF91CF9108958E3008F08E508770DF
:100BD000806480937C0080917A00806480937A00A6
:100BE00080917A0086FDFCCF809178002091790079
:100BF00090E0922B0895CF93DF93CDB7DEB7619746
:100C00000FB6F894DEBF0FBECDBF789484B5826076
:100C100084BD84B5816084BD85B5826085BD85B5A0
:100C2000816085BD80916E00816080936E0010921E
:100C30008100809181008260809381008091810099
:100C4000816080938100809180008160809380002A
:100C50008091B10084608093B1008091B000816088
:100C60008093B00080917A00846080937A008091B4
:100C70007A00826080937A0080917A00816080930C
:100C80007A0080917A00806880937A001092C10087
:100C9000E0912102F091220281E090E09C0100901D
:100CA0002D0202C0220F331F0A94E2F72083E09145
:100CB0001D02F0911E021082E0911F02F0912002AD
:100CC00020E1208310922E02E0912302F091240271
:100CD00040819C010090290202C0220F331F0A9418
:100CE000E2F7242B2083E0912302F091240240813B
:100CF0009C0100902A0202C0220F331F0A94E2F7DF
:100D0000242B2083E0912302F091240240819C0156
:100D100000902B0202C0220F331F0A94E2F7242B0B
:100D20002083E0912302F0912402208100902C0284
:100D300002C0880F991F0A94E2F78095822380836E
:100D400083EA90E00E949E0480914D0690914E06A9
:100D500097FD07C061E00E94A80580914D060E94A2
:100D6000AB0381E080934806809150069091510634
:100D7000892B09F4A2C00E949E0100915606109191
:100D800057062091580630915906DC01CB01801B93
:100D9000910BA20BB30B8C329140A105B10558F316
:100DA000F89480914B0690914C069A838983E09148
:100DB0005006F0915106DF0111968081898790914C
:100DC0004506E0915A06F0915B0680915C069923F6
:100DD00009F42EC09081982B988790818095892363
:100DE0008F838F818C8388E08B8358856F814985C1
:100DF0003B812C8189819A81508347FD252F3A952B
:100E00002083262F39F0441F00C0000060830000BB
:100E100000C0F2CF38E04D9160830000019761F788
:100E2000F0935B06E0935A0649873B832C8338C0D6
:100E30009081982B98879081809589238F838F81CB
:100E40008E8388E08D8358856F8149853D812E8111
:100E500089819A81508347FD252F00C000C02083DF
:100E600000C000C000C000C000C060830000262F8A
:100E70003A9541F0441F000000C000C000C000C00F
:100E800000C0E8CF38E04D9100C0608300C00197FA
:100E900009F7F0935B06E0935A0649873D832E835A
:100EA0009A83898378940E949E016093560670937A
:100EB0005706809358069093590660914F06693CF7
:100EC00021F12091500630915106615031F070E0CF
:100ED0008FEF98EC0E94F81002C060E070E0F9011A
:100EE00040914B0650914C06CF01821B930B841707
:100EF000950740F44081469FC001479F900D112403
:100F00009193EECF89EC80934F0681E090E090932F
:100F10006601809365011092800110927F012FB7C6
:100F2000F8948091730190917401A0917501B09132
:100F300076012FBF8093810190938201A09383015A
:100F4000B093840189EE282E83E0382E0E94C301DD
:100F50008DE092E00E948A01181619060CF0D6C0A6
:100F60008DE092E00E944E01182F809131021813FB
:100F7000B0C01092680581E080936905E09132026B
:100F8000F0E0E05DFD4F15828091330290913402D4
:100F900081309105B9F17CF4892B09F09AC066E2A1
:100FA00071E085E392E00E94730BBC018DEF92E04B
:100FB0000E94D20F8EC08230910509F45FC0039762
:100FC00009F087C066E271E085E392E00E94730B4E
:100FD000BC018DEF92E00E94D20F66E271E080E0EA
:100FE00090E00E94730BBC0185EC93E00E94D20F4D
:100FF00066E271E080E090E00E94730BBC018DE836
:1010000094E045C066E271E085E392E00E94730BD4
:10101000BC018DEF92E00E94D20F66E271E080E0A9
:1010200090E00E94730B0E946C0B609357057093C5
:1010300058058093590590935A0566E271E080E067
:1010400090E00E94730B0E946C0B60935B057093A1
:101050005C0580935D0590935E0566E271E080E03B
:1010600090E00E94730B0E946C0B60935F0570937D
:10107000600580936105909362052BC066E271E084
:1010800085E392E00E94730BBC018DEF92E00E9419
:10109000D20F66E271E080E090E00E94730B0E9444
:1010A0006C0B609357057093580580935905909386
:1010B0005A0566E271E080E090E00E94730B0E94A6
:1010C0006C0B60935B0570935C0580935D0590935A
:1010D0005E0580916805882381F080913202E82FB7
:1010E000F0E0E05DFD4F15838F5F883C19F0809341
:1010F000320203C097EC90933202809130021813B1
:1011000005C010923202A1E0A0936805B1E0B0934F
:10111000670568E271E08DEF92E00E94C90F892BAC
:1011200009F0AFC080916905882309F4CAC1109203
:10113000690500916501109166010B3011050CF0F5
:1011400099C00E94C3018091770190917801A0918C
:101150007901B0917A018A879B87AC87BD8780919E
:101160006F0190917001A0917101B09172018E8711
:101170009F87A88BB98BC0907B01D0907C01E090B9
:101180007D01F0907E0180906B0190906C01A090A9
:101190006D01B0906E0140906701509068016090C1
:1011A000690170906A0185EB90E00E948404C3019C
:1011B000B2010E94D70483EB90E00E948404C50131
:1011C000B4010E94D70481EB90E00E948404C7011F
:1011D000B6010E94D7048FEA90E00E9484046E85D5
:1011E0007F85888999890E94D7048DEA90E00E94C2
:1011F00084046A857B858C859D850E94D7048BEA53
:1012000090E00E948404C8010E94AA0489EA90E048
:101210000E949E042FB7F8948091730190917401FD
:10122000A0917501B09176012FBF809361019093D9
:101230006201A0936301B09364018FB7F894409169
:1012400073015091740160917501709176018FBFA7
:101250008091610190916201A0916301B09164015C
:1012600080579E4FAF4FBF4F481759076A077B07FC
:1012700020F35FCFA1E0B0E0B0936601A0936501D9
:1012800020C163E571E08DEF92E00E94C90F892BC8
:1012900009F068C080916905882309F412C1109291
:1012A00069058091770190917801A0917901B091C1
:1012B0007A018A879B87AC87BD8780916F01909167
:1012C0007001A0917101B09172018E879F87A88BE8
:1012D000B98BC0907B01D0907C01E0907D01F090B3
:1012E0007E0180906B0190906C01A0906D01B09098
:1012F0006E014090670150906801609069017090A4
:101300006A018FEC90E00E948404C301B2010E9444
:10131000D7048DEC90E00E948404C501B4010E94C2
:10132000D7048BEC90E00E948404C701B6010E94B0
:10133000D70489EC90E00E9484046E857F858889BB
:1013400099890E94D70487EC90E00E9484046A8502
:101350007B858C859D850E94D70485EC90E00E945A
:101360009E04AFC06AE271E08DEF92E00E94C90F67
:10137000892B19F40E94DE02A4C06EE271E08DEFA9
:1013800092E00E94C90F892BA9F362E371E08DEF0F
:1013900092E00E94C90F892B69F366E371E08DEF3B
:1013A00092E00E94C90F892B29F36AE371E08DEF67
:1013B00092E00E94C90F892BE9F26EE371E08DEF94
:1013C00092E00E94C90F892BA9F262E471E08DEFCF
:1013D00092E00E94C90F892B69F266E471E08DEFFB
:1013E00092E00E94C90F892B09F06BC080918101A6
:1013F00090918201A0918301B0918401B095A09554
:10140000909581959F4FAF4FBF4F81319742A10576
:10141000B105B8F50E94C30180917F0190918001D0
:1014200001969093800180937F012BE734E14EEA8F
:101430005EE360917B0170917C0180917D019091D0
:101440007E010E94EE10181684F028EB3EE145E87C
:101450005EE36091770170917801809179019091BC
:101460007A010E94EE10181664F5309280012092E5
:101470007F0180916905882321F11092690581E03F
:101480001EC02FB7F8948091730190917401A091C0
:101490007501B09176012FBF8093810190938201F5
:1014A000A0938301B09384013092800120927F0148
:1014B00080916905882329F01092690580E00E94D7
:1014C000B4040E949A0142CD809150069091510639
:1014D0000E94400F80914D0690914E0697FD03C0EB
:1014E00060E00C94A80508951092100210920F026B
:1014F00088EE93E0A0E0B0E0809311029093120296
:10150000A0931302B09314028AE091E090930E022C
:1015100080930D0289EC91E090931A028093190256
:1015200085E891E090931C0280931B0285EC90E08B
:1015300090931E0280931D0284EC90E09093200211
:1015400080931F0280EC90E090932202809321020E
:1015500081EC90E0909324028093230282EC90E04F
:10156000909326028093250286EC90E090932802C7
:101570008093270284E08093290283E080932A02EB
:1015800087E080932B0285E080932C0281E080939A
:101590002D021092480610924F0610925606109295
:1015A000570610925806109259068093550680935C
:1015B00052061092530692E090935406809345068B
:1015C00084EB90E090934C0680934B060E94A80E0B
:1015D0009093510680935006009761F024EBFC0134
:1015E00011922A95E9F78CE390E090934A06809354
:1015F000490608C010924C0610924B0610924A06FB
:101600001092490684E090E090934E0680934D0638
:1016100080914806882339F061E084E00E94A805A3
:1016200084E00E94AB03E7E4F1E0E491F0E0EE0F28
:10163000FF1FE75CFE4F8591949190935B0680932A
:101640005A06E9E2F1E0E491E0935C068EE08093D3
:101650006A058FE080936B0580E180936C0581E1E2
:1016600080936D0582E180936E058CE38093300258
:101670008EE3809331021092320210923402109263
:1016800033021092FD021092C50310928D04109245
:101690005705109258051092590510925A0510924C
:1016A0005B0510925C0510925D0510925E0510922C
:1016B0005F0510926005109261051092620582E349
:1016C00090E0A0E0B0E08093630590936405A09360
:1016D0006505B09366050895662777270C949F0BE0
:1016E000F8940C9412114DE556E00E94780B089581
:1016F000FA01A191B081009719F41097E1F0CD01A2
:10170000DC01CD010D90002011F4C00113C0FB01DC
:101710002191222319F02015D9F7F3CFFB01219154
:10172000201519F41E92119606C02223C1F70D90C0
:101730000020A1F7D001FA01A193B0830895A0E0A1
:10174000B0E0E5EAFBE00C94460EEC016B0161159C
:10175000710519F0FB01918380837E01FFEFEF1A81
:10176000FF0A0881802F90E00E94ED0C892B11F078
:10177000E701F3CF0D3239F47E0182E0E80EF11C6F
:10178000098111E008C00B3229F47E0192E0E90ED4
:10179000F11C098110E0E701219743E050E060E788
:1017A00070E0CE010E94F60C892BC1F4239645E02F
:1017B00050E06BE670E0CE010E94F60C892B09F434
:1017C0002596C114D10419F0F601D183C0831111FB
:1017D000F6C060E070E080E89FE7FAC043E050E0C8
:1017E00068E670E0CE010E94F60C892B59F4C11412
:1017F000D10409F4E9C0F2E0EF0EF11CF601F18228
:10180000E082E2C020E030E0A901C0E0D0E0F701D2
:1018100080EDA82EA00E89E08A1530F1912F9260FC
:10182000B92E812F887012FF04C0811124C0219627
:1018300022C081112197A5E0B0E00E94350EDC01A5
:10184000CB01880F991FAA1FBB1F9C01AD012A0D58
:10185000311D411D511D283989E93807480789E1A3
:10186000580748F0166006C09EEFA9120AC013FD83
:1018700040C01860B12E8FEFE81AF80A00811B2DC6
:10188000C6CF802F8F7D8534A1F580818D3211F4F4
:10189000106106C08B3221F0319661E070E004C027
:1018A0008181329662E070E080538A3018F0E61B46
:1018B000F70B1FC060E070E060389CE079075CF4D3
:1018C000DB01AA0FBB1FAA0FBB1F6A0F7B1F660F8E
:1018D000771F680F711D3196DF0111978C9180532E
:1018E0008A3050F314FF03C0719561957109C60FDA
:1018F000D71F11FF08C0C114D10429F0CF010197EF
:10190000F60191838083CA01B9010E94130D212F32
:101910002370233019F04B015C0106C04B015C01C0
:10192000B7FAB094B7F8B09420E030E0A901C5014F
:10193000B4010E940E0D882309F43EC0D7FF06C0F3
:10194000D195C195D10907E810E002C00FE910E078
:101950006801F8E1CF1AD10890E2E92EF12CCE15FA
:10196000DF0574F0F8012591359145915491C50139
:10197000B4010E94740D4B015C01CE19DF09EFCF59
:1019800004501109F594E7940C151D0541F78A2DB3
:10199000880F8B2D881F8F3F49F020E030E0A90190
:1019A000C501B4010E940E0D811106C082E290E0D3
:1019B0009093600680935F06C501B40109C060E0A2
:1019C00070E080E89FEF04C060E070E080EC9FE78B
:1019D000CDB7DEB7ECE00C94620E91110C94E10DE2
:1019E000803219F089508550C8F70895FB01DC0159
:1019F0004150504088F08D9181341CF08B350CF4AF
:101A0000805E659161341CF06B350CF4605E861B62
:101A1000611171F3990B0895881BFCCF0E94500D42
:101A200008F481E00895E89409C097FB3EF490958E
:101A30008095709561957F4F8F4F9F4F9923A9F0A7
:101A4000F92F96E9BB279395F69587957795679536
:101A5000B795F111F8CFFAF4BB0F11F460FF1BC07A
:101A60006F5F7F4F8F4F9F4F16C0882311F096E90D
:101A700011C0772321F09EE8872F762F05C06623BB
:101A800071F096E8862F70E060E02AF09A95660F74
:101A9000771F881FDAF7880F9695879597F908952D
:101AA000990F0008550FAA0BE0E8FEEF161617066F
:101AB000E807F907C0F012161306E407F50798F0D7
:101AC000621B730B840B950B39F40A2661F0232BF0
:101AD000242B252B21F408950A2609F4A140A6956C
:101AE0008FEF811D811D08950E94870D0C94FB0DC1
:101AF0000E94ED0D38F00E94F40D20F0952311F0B6
:101B00000C94E40D0C94EA0D11240C942F0E0E94F9
:101B10000C0E70F3959FC1F3950F50E0551F629F17
:101B2000F001729FBB27F00DB11D639FAA27F00D36
:101B3000B11DAA1F649F6627B00DA11D661F829F5D
:101B40002227B00DA11D621F739FB00DA11D621F42
:101B5000839FA00D611D221F749F3327A00D611D5F
:101B6000231F849F600D211D822F762F6A2F112441
:101B70009F5750409AF0F1F088234AF0EE0FFF1F74
:101B8000BB1F661F771F881F91505040A9F79E3FCB
:101B9000510580F00C94E40D0C942F0E5F3FE4F39C
:101BA000983ED4F3869577956795B795F795E79521
:101BB0009F5FC1F7FE2B880F911D9695879597F92A
:101BC000089599278827089597F99F6780E870E01E
:101BD00060E008959FEF80EC089500240A941616A3
:101BE000170618060906089500240A94121613060B
:101BF000140605060895092E0394000C11F4882399
:101C000052F0BB0F40F4BF2B11F460FF04C06F5FB4
:101C10007F4F8F4F9F4F089557FD9058440F551F8A
:101C200059F05F3F71F04795880F97FB991F61F05E
:101C30009F3F79F087950895121613061406551FD5
:101C4000F2CF4695F1DF08C0161617061806991F41
:101C5000F1CF86957105610508940895E894BB2736
:101C600066277727CB0197F908950E94990EA59FC3
:101C7000900DB49F900DA49F800D911D1124089587
:101C80002F923F924F925F926F927F928F929F928C
:101C9000AF92BF92CF92DF92EF92FF920F931F937A
:101CA000CF93DF93CDB7DEB7CA1BDB0B0FB6F8942B
:101CB000DEBF0FBECDBF09942A88398848885F846B
:101CC0006E847D848C849B84AA84B984C884DF80DC
:101CD000EE80FD800C811B81AA81B981CE0FD11DC0
:101CE0000FB6F894DEBF0FBECDBFED010895A1E29F
:101CF0001A2EAA1BBB1BFD010DC0AA1FBB1FEE1F86
:101D0000FF1FA217B307E407F50720F0A21BB30BD0
:101D1000E40BF50B661F771F881F991F1A9469F74C
:101D200060957095809590959B01AC01BD01CF01A8
:101D30000895A29FB001B39FC001A39F700D811DA4
:101D40001124911DB29F700D811D1124911D0895C4
:101D50000F931F93CF93DF938230910510F482E0AD
:101D600090E0E0916306F091640620E030E0A0E0AE
:101D7000B0E0309719F140815181028113814817F9
:101D80005907C8F08417950769F4109731F0129637
:101D90000C93129713961C9327C00093630610931D
:101DA000640622C02115310519F04217530718F4B3
:101DB0009A01BD01EF01DF01F801DBCF21153105EB
:101DC000F9F0281B390B2430310580F48A819B817E
:101DD0006115710521F0FB019383828304C0909308
:101DE000640680936306FE01329644C0FE01E20F52
:101DF000F31F8193919322503109398328833AC08C
:101E00002091610630916206232B41F4209102015A
:101E10003091030130936206209361062091000106
:101E2000309101012115310541F42DB73EB74091A4
:101E3000040150910501241B350BE0916106F091DE
:101E40006206E217F307A0F42E1B3F0B2817390791
:101E500078F0AC014E5F5F4F2417350748F04E0F06
:101E60005F1F50936206409361068193919302C075
:101E7000E0E0F0E0CF01DF91CF911F910F91089545
:101E8000CF93DF93009709F481C0FC01329713824E
:101E90001282A0916306B0916406109781F42081AC
:101EA0003181820F931F20916106309162062817BD
:101EB000390751F5F0936206E093610667C0ED01C2
:101EC00020E030E0CE17DF0740F44A815B819E01BD
:101ED00041155105F1F0EA01F5CFD383C28340816A
:101EE0005181840F951FC817D90759F488819981AA
:101EF000840F951F0296918380838A819B819383AF
:101F000082832115310529F4F0936406E09363067A
:101F10003DC0E901FB83EA8349915991C40FD51F64
:101F2000EC17FD0761F480819181840F951F029663
:101F3000E90199838883828193819B838A83E0E08E
:101F4000F0E012968D919C911397009719F0FD0186
:101F5000DC01F7CF8D919C9111979D012E5F3F4F32
:101F6000820F931F2091610630916206281739076E
:101F700069F4309729F4109264061092630602C047
:101F800013821282B0936206A0936106DF91CF9113
:101F90000895FB01DC018D91019080190110D9F3A6
:101FA000990B0895FB01DC0101900D920020E1F7EF
:101FB00008955058BB27AA270E94F10F0C94FB0DDF
:101FC0000E94ED0D38F00E94F40D20F039F49F3F8F
:101FD00019F426F40C94EA0D0EF4E095E7FB0C944A
:101FE000E40DE92F0E940C0E58F3BA17620773072D
:101FF0008407950720F079F4A6F50C942E0E0EF4C4
:10200000E0950B2EBA2FA02D0B01B90190010C0108
:10201000CA01A0011124FF27591B99F0593F50F420
:10202000503E68F11A16F040A22F232F342F442778
:10203000585FF3CF469537952795A795F040539570
:10204000C9F77EF41F16BA0B620B730B840BBAF040
:102050009150A1F0FF0FBB1F661F771F881FC2F7AB
:102060000EC0BA0F621F731F841F48F487957795BF
:102070006795B795F7959E3F08F0B0CF9395880F79
:1020800008F09927EE0F9795879508950E945A10AA
:102090000C94FB0D0E94F40D58F00E94ED0D40F0E1
:1020A00029F45F3F29F00C94E40D51110C942F0E8C
:1020B0000C94EA0D0E940C0E68F39923B1F355239A
:1020C00091F3951B550BBB27AA276217730784074B
:1020D00038F09F5F5F4F220F331F441FAA1FA9F3E1
:1020E00035D00E2E3AF0E0E832D091505040E695CF
:1020F000001CCAF72BD0FE2F29D0660F771F881F30
:10210000BB1F261737074807AB07B0E809F0BB0B22
:10211000802DBF01FF2793585F4F3AF09E3F510536
:1021200078F00C94E40D0C942F0E5F3FE4F3983E8E
:10213000D4F3869577956795B795F7959F5FC9F71F
:10214000880F911D9695879597F90895E1E0660FA0
:10215000771F881FBB1F621773078407BA0720F019
:10216000621B730B840BBA0BEE1F88F7E095089582
:102170000E94BF106894B1110C942F0E08950E9414
:10218000140E88F09F5798F0B92F9927B751B0F0E7
:10219000E1F0660F771F881F991F1AF0BA95C9F7EB
:1021A00014C0B13091F00E942E0EB1E008950C944D
:1021B0002E0E672F782F8827B85F39F0B93FCCF300
:1021C000869577956795B395D9F73EF49095809568
:1021D000709561957F4F8F4F9F4F08950E94500DCE
:1021E00008F48FEF08950E94500D880B990B089505
:1021F000AA1BBB1B51E107C0AA1FBB1FA617B7072D
:1022000010F0A61BB70B881F991F5A95A9F7809548
:102210009095BC01CD010895EE0FFF1F0590F4913C
:10222000E02D099410E0CDEAD0E004C0FE010E9448
:0E2230000C112196CE3AD107C9F7F894FFCFD2
:10223E00000065062000000000000101D8008A01A0
:10224E004E016E0143013C71756965743120666FF4
:10225E00756E64003E002C0074007175310071754E
:10226E003200636F3100636F32006361310063616E
:10227E00320073713100707573680020006E616EEC
:0C228E0000696E66006F7666002E00008E
:00000001FF
